{"contracts/RittyRental.sol":{"RittyRental":{"abi":[{"inputs":[{"internalType":"address","name":"_stakingPool","type":"address"}],"stateMutability":"nonpayable","type":"constructor"},{"anonymous":false,"inputs":[{"indexed":true,"internalType":"uint256","name":"agentId","type":"uint256"}],"name":"AgentDeactivated","type":"event"},{"anonymous":false,"inputs":[{"indexed":true,"internalType":"uint256","name":"agentId","type":"uint256"},{"indexed":true,"internalType":"address","name":"owner","type":"address"},{"indexed":false,"internalType":"string","name":"name","type":"string"}],"name":"AgentListed","type":"event"},{"anonymous":false,"inputs":[{"indexed":true,"internalType":"uint256","name":"agentId","type":"uint256"},{"indexed":true,"internalType":"address","name":"rater","type":"address"},{"indexed":false,"internalType":"uint8","name":"rating","type":"uint8"}],"name":"AgentRated","type":"event"},{"anonymous":false,"inputs":[{"indexed":true,"internalType":"uint256","name":"agentId","type":"uint256"}],"name":"AgentReactivated","type":"event"},{"anonymous":false,"inputs":[{"indexed":true,"internalType":"uint256","name":"agentId","type":"uint256"},{"indexed":true,"internalType":"address","name":"renter","type":"address"},{"indexed":false,"internalType":"uint256","name":"duration","type":"uint256"},{"indexed":false,"internalType":"uint256","name":"totalPaid","type":"uint256"}],"name":"AgentRented","type":"event"},{"anonymous":false,"inputs":[{"indexed":true,"internalType":"uint256","name":"agentId","type":"uint256"},{"indexed":false,"internalType":"uint256","name":"oldPrice","type":"uint256"},{"indexed":false,"internalType":"uint256","name":"newPrice","type":"uint256"}],"name":"PriceUpdated","type":"event"},{"anonymous":false,"inputs":[{"indexed":false,"internalType":"address","name":"oldPool","type":"address"},{"indexed":false,"internalType":"address","name":"newPool","type":"address"}],"name":"StakingPoolUpdated","type":"event"},{"inputs":[],"name":"agentCount","outputs":[{"internalType":"uint256","name":"","type":"uint256"}],"stateMutability":"view","type":"function"},{"inputs":[{"internalType":"uint256","name":"","type":"uint256"}],"name":"agents","outputs":[{"internalType":"address","name":"owner","type":"address"},{"internalType":"string","name":"name","type":"string"},{"internalType":"string","name":"description","type":"string"},{"internalType":"uint256","name":"pricePerHour","type":"uint256"},{"internalType":"uint256","name":"totalEarnings","type":"uint256"},{"internalType":"uint256","name":"totalRentals","type":"uint256"},{"internalType":"uint256","name":"rating","type":"uint256"},{"internalType":"uint256","name":"ratingCount","type":"uint256"},{"internalType":"bool","name":"isActive","type":"bool"}],"stateMutability":"view","type":"function"},{"inputs":[{"internalType":"uint256","name":"_agentId","type":"uint256"},{"internalType":"uint256","name":"_hours","type":"uint256"}],"name":"calculateRentalCost","outputs":[{"internalType":"uint256","name":"","type":"uint256"}],"stateMutability":"view","type":"function"},{"inputs":[{"internalType":"uint256","name":"_agentId","type":"uint256"}],"name":"deactivateAgent","outputs":[],"stateMutability":"nonpayable","type":"function"},{"inputs":[{"internalType":"uint256","name":"_offset","type":"uint256"},{"internalType":"uint256","name":"_limit","type":"uint256"}],"name":"getActiveAgents","outputs":[{"internalType":"uint256[]","name":"","type":"uint256[]"}],"stateMutability":"view","type":"function"},{"inputs":[{"internalType":"uint256","name":"_agentId","type":"uint256"}],"name":"getAgent","outputs":[{"internalType":"address","name":"ownerAddr","type":"address"},{"internalType":"string","name":"name","type":"string"},{"internalType":"string","name":"description","type":"string"},{"internalType":"uint256","name":"pricePerHour","type":"uint256"},{"internalType":"uint256","name":"totalEarnings","type":"uint256"},{"internalType":"uint256","name":"totalRentals","type":"uint256"},{"internalType":"uint256","name":"rating","type":"uint256"},{"internalType":"uint256","name":"ratingCount","type":"uint256"},{"internalType":"bool","name":"isActive","type":"bool"}],"stateMutability":"view","type":"function"},{"inputs":[{"internalType":"uint256","name":"_agentId","type":"uint256"}],"name":"getRentals","outputs":[{"components":[{"internalType":"address","name":"renter","type":"address"},{"internalType":"uint256","name":"agentId","type":"uint256"},{"internalType":"uint256","name":"startTime","type":"uint256"},{"internalType":"uint256","name":"endTime","type":"uint256"},{"internalType":"uint256","name":"totalPaid","type":"uint256"},{"internalType":"bool","name":"isActive","type":"bool"}],"internalType":"struct RittyRental.Rental[]","name":"","type":"tuple[]"}],"stateMutability":"view","type":"function"},{"inputs":[{"internalType":"address","name":"_user","type":"address"}],"name":"getUserAgents","outputs":[{"internalType":"uint256[]","name":"","type":"uint256[]"}],"stateMutability":"view","type":"function"},{"inputs":[{"internalType":"uint256","name":"","type":"uint256"},{"internalType":"address","name":"","type":"address"}],"name":"hasRated","outputs":[{"internalType":"bool","name":"","type":"bool"}],"stateMutability":"view","type":"function"},{"inputs":[{"internalType":"string","name":"_name","type":"string"},{"internalType":"string","name":"_description","type":"string"},{"internalType":"string[]","name":"_capabilities","type":"string[]"},{"internalType":"uint256","name":"_pricePerHour","type":"uint256"}],"name":"listAgent","outputs":[{"internalType":"uint256","name":"","type":"uint256"}],"stateMutability":"nonpayable","type":"function"},{"inputs":[],"name":"owner","outputs":[{"internalType":"address","name":"","type":"address"}],"stateMutability":"view","type":"function"},{"inputs":[{"internalType":"uint256","name":"_agentId","type":"uint256"},{"internalType":"uint8","name":"_rating","type":"uint8"}],"name":"rateAgent","outputs":[],"stateMutability":"nonpayable","type":"function"},{"inputs":[{"internalType":"uint256","name":"_agentId","type":"uint256"}],"name":"reactivateAgent","outputs":[],"stateMutability":"nonpayable","type":"function"},{"inputs":[{"internalType":"uint256","name":"_agentId","type":"uint256"},{"internalType":"uint256","name":"_hours","type":"uint256"}],"name":"rentAgent","outputs":[],"stateMutability":"payable","type":"function"},{"inputs":[{"internalType":"uint256","name":"","type":"uint256"},{"internalType":"uint256","name":"","type":"uint256"}],"name":"rentals","outputs":[{"internalType":"address","name":"renter","type":"address"},{"internalType":"uint256","name":"agentId","type":"uint256"},{"internalType":"uint256","name":"startTime","type":"uint256"},{"internalType":"uint256","name":"endTime","type":"uint256"},{"internalType":"uint256","name":"totalPaid","type":"uint256"},{"internalType":"bool","name":"isActive","type":"bool"}],"stateMutability":"view","type":"function"},{"inputs":[],"name":"stakingPool","outputs":[{"internalType":"contract IStakingPool","name":"","type":"address"}],"stateMutability":"view","type":"function"},{"inputs":[{"internalType":"address","name":"_newOwner","type":"address"}],"name":"transferOwnership","outputs":[],"stateMutability":"nonpayable","type":"function"},{"inputs":[{"internalType":"uint256","name":"_agentId","type":"uint256"},{"internalType":"uint256","name":"_newPrice","type":"uint256"}],"name":"updatePrice","outputs":[],"stateMutability":"nonpayable","type":"function"},{"inputs":[{"internalType":"address","name":"_newPool","type":"address"}],"name":"updateStakingPool","outputs":[],"stateMutability":"nonpayable","type":"function"},{"inputs":[{"internalType":"address","name":"","type":"address"},{"internalType":"uint256","name":"","type":"uint256"}],"name":"userAgents","outputs":[{"internalType":"uint256","name":"","type":"uint256"}],"stateMutability":"view","type":"function"},{"inputs":[],"name":"withdrawPlatformFees","outputs":[],"stateMutability":"nonpayable","type":"function"},{"stateMutability":"payable","type":"receive"}],"evm":{"bytecode":{"linkReferences":{},"object":"608060405234801561001057600080fd5b50604051611f90380380611f9083398101604081905261002f91610062565b60058054336001600160a01b031991821617909155600680549091166001600160a01b0392909216919091179055610092565b60006020828403121561007457600080fd5b81516001600160a01b038116811461008b57600080fd5b9392505050565b611eef806100a16000396000f3fe60806040526004361061012e5760003560e01c8063766f66d0116100ab578063a99bc4091161006f578063a99bc409146103c4578063b7dc1284146103e4578063d0b7830b146103fa578063d496498f1461040f578063f2fde38b1461043c578063fd6103171461045c57600080fd5b8063766f66d01461033157806382367b2d14610351578063893e5544146103715780638da5cb5b146103915780639a9e6bb5146103b157600080fd5b80633d46519d116100f25780633d46519d1461021f5780634435c1011461023f578063513856c81461029857806351ca9ff9146102b857806376454486146102e657600080fd5b8063072619601461013a5780630c56ae3b1461017057806311ba6b4a146101a857806322f825cc146101ca5780632de5aaf7146101ea57600080fd5b3661013557005b600080fd5b34801561014657600080fd5b5061015a6101553660046117b0565b61047c565b60405161016791906117d2565b60405180910390f35b34801561017c57600080fd5b50600654610190906001600160a01b031681565b6040516001600160a01b039091168152602001610167565b3480156101b457600080fd5b506101c86101c3366004611816565b6105b8565b005b3480156101d657600080fd5b506101c86101e536600461182f565b61063d565b3480156101f657600080fd5b5061020a610205366004611816565b6107f5565b604051610167999897969594939291906118ab565b34801561022b57600080fd5b5061015a61023a366004611937565b61098c565b34801561024b57600080fd5b5061025f61025a3660046117b0565b6109f8565b604080516001600160a01b03909716875260208701959095529385019290925260608401526080830152151560a082015260c001610167565b3480156102a457600080fd5b5061020a6102b3366004611816565b610a59565b3480156102c457600080fd5b506102d86102d3366004611952565b610bc0565b604051908152602001610167565b3480156102f257600080fd5b5061032161030136600461197c565b600360209081526000928352604080842090915290825290205460ff1681565b6040519015158152602001610167565b34801561033d57600080fd5b506102d861034c3660046119f1565b610bf1565b34801561035d57600080fd5b506101c861036c3660046117b0565b610e6e565b34801561037d57600080fd5b506102d861038c3660046117b0565b610f3f565b34801561039d57600080fd5b50600554610190906001600160a01b031681565b6101c86103bf3660046117b0565b610f63565b3480156103d057600080fd5b506101c86103df366004611937565b611306565b3480156103f057600080fd5b506102d860045481565b34801561040657600080fd5b506101c86113d9565b34801561041b57600080fd5b5061042f61042a366004611816565b6114d4565b6040516101679190611ac5565b34801561044857600080fd5b506101c8610457366004611937565b61158a565b34801561046857600080fd5b506101c8610477366004611816565b61161b565b6060600060015b60045481116104c65760008181526020819052604090206009015460ff16156104b457816104b081611b5e565b9250505b806104be81611b5e565b915050610483565b5060008382106104d657836104d8565b815b67ffffffffffffffff8111156104f0576104f0611b77565b604051908082528060200260200182016040528015610519578160200160208202803683370190505b50905060008060015b60045481111580156105345750835183105b156105aa5760008181526020819052604090206009015460ff1615610598578782101561056d578161056581611b5e565b925050610598565b80848461057981611b5e565b95508151811061058b5761058b611b8d565b6020026020010181815250505b806105a281611b5e565b915050610522565b509193505050505b92915050565b60008181526020819052604090205481906001600160a01b031633146105f95760405162461bcd60e51b81526004016105f090611ba3565b60405180910390fd5b600082815260208190526040808220600901805460ff191690555183917fc2fb7f8575ac3990e70361684edfc4d283931ea9a03dfa28766bf376a3934aa291a25050565b60018160ff1610158015610655575060058160ff1611155b61068e5760405162461bcd60e51b815260206004820152600a602482015269526174696e6720312d3560b01b60448201526064016105f0565b600082815260036020908152604080832033845290915290205460ff16156106e85760405162461bcd60e51b815260206004820152600d60248201526c105b1c9958591e481c985d1959609a1b60448201526064016105f0565b600082815260208190526040902060068101546107385760405162461bcd60e51b815260206004820152600e60248201526d139bc81c995b9d185b1cc81e595d60921b60448201526064016105f0565b60008381526003602090815260408083203384529091528120805460ff1916600117905561076a60ff84166064611bcc565b8260080154836007015461077e9190611bcc565b6107889190611be3565b600883018054919250600061079c83611b5e565b909155505060088201546107b09082611bf6565b600783015560405160ff84168152339085907f03f89f4b64cbfddce65251a2c96abe43618693ae1de8bc6cb21193cc2dcd30359060200160405180910390a350505050565b600081815260208190526040812080546004820154600583015460068401546007850154600886015460098701546001880180546060998a998c998a998a998a998a998a9996986001600160a01b0390961697959660028a019660ff90911690889061086090611c18565b80601f016020809104026020016040519081016040528092919081815260200182805461088c90611c18565b80156108d95780601f106108ae576101008083540402835291602001916108d9565b820191906000526020600020905b8154815290600101906020018083116108bc57829003601f168201915b505050505097508680546108ec90611c18565b80601f016020809104026020016040519081016040528092919081815260200182805461091890611c18565b80156109655780601f1061093a57610100808354040283529160200191610965565b820191906000526020600020905b81548152906001019060200180831161094857829003601f168201915b50505050509650995099509950995099509950995099509950509193959799909294969850565b6001600160a01b0381166000908152600260209081526040918290208054835181840281018401909452808452606093928301828280156109ec57602002820191906000526020600020905b8154815260200190600101908083116109d8575b50505050509050919050565b60016020528160005260406000208181548110610a1457600080fd5b60009182526020909120600690910201805460018201546002830154600384015460048501546005909501546001600160a01b03909416965091945092909160ff1686565b600060208190529081526040902080546001820180546001600160a01b039092169291610a8590611c18565b80601f0160208091040260200160405190810160405280929190818152602001828054610ab190611c18565b8015610afe5780601f10610ad357610100808354040283529160200191610afe565b820191906000526020600020905b815481529060010190602001808311610ae157829003601f168201915b505050505090806002018054610b1390611c18565b80601f0160208091040260200160405190810160405280929190818152602001828054610b3f90611c18565b8015610b8c5780601f10610b6157610100808354040283529160200191610b8c565b820191906000526020600020905b815481529060010190602001808311610b6f57829003601f168201915b5050506004840154600585015460068601546007870154600888015460099098015496979396929550909350919060ff1689565b60026020528160005260406000208181548110610bdc57600080fd5b90600052602060002001600091509150505481565b6000808211610c335760405162461bcd60e51b815260206004820152600e60248201526d05072696365206d757374203e20360941b60448201526064016105f0565b86610c705760405162461bcd60e51b815260206004820152600d60248201526c13985b59481c995c5d5a5c9959609a1b60448201526064016105f0565b60048054906000610c8083611b5e565b9091555050600454604080516101408101825233815281516020601f8c018190048102820181019093528a8152909180830191908c908c9081908401838280828437600092019190915250505090825250604080516020601f8b0181900481028201810190925289815291810191908a908a9081908401838280828437600092019190915250505090825250602001610d198688611c83565b8152602080820186905260006040808401829052606084018290526080840182905260a08401829052600160c09094018490528582528183529020835181546001600160a01b0319166001600160a01b03909116178155908301519091820190610d839082611da7565b5060408201516002820190610d989082611da7565b5060608201518051610db49160038401916020909101906116eb565b506080820151600482015560a0820151600582015560c0820151600682015560e082015160078201556101008201516008820155610120909101516009909101805460ff1916911515919091179055336000818152600260209081526040808320805460018101825590845291909220018390555182907f3baa75a7d8396bec2037d577c6a8bb77ab67158a261d329a5b0b42d45c14f05990610e5a908d908d90611e67565b60405180910390a398975050505050505050565b60008281526020819052604090205482906001600160a01b03163314610ea65760405162461bcd60e51b81526004016105f090611ba3565b60008211610ee75760405162461bcd60e51b815260206004820152600e60248201526d05072696365206d757374203e20360941b60448201526064016105f0565b6000838152602081815260409182902060040180549085905582518181529182018590529185917f15819dd2fd9f6418b142e798d08a18d0bf06ea368f4480b7b0d3f75bd966bc48910160405180910390a250505050565b600082815260208190526040812060040154610f5c908390611bcc565b9392505050565b6000828152602081905260409020600981015460ff16610fb85760405162461bcd60e51b815260206004820152601060248201526f4167656e74206e6f742061637469766560801b60448201526064016105f0565b60008211610ffc5760405162461bcd60e51b815260206004820152601160248201527004475726174696f6e206d757374203e203607c1b60448201526064016105f0565b81816004015461100c9190611bcc565b3410156110525760405162461bcd60e51b8152602060048201526014602482015273125b9cdd59999a58da595b9d081c185e5b595b9d60621b60448201526064016105f0565b600061271061106334611b58611bcc565b61106d9190611bf6565b90506000612710611080346107d0611bcc565b61108a9190611bf6565b9050600061271061109d346103e8611bcc565b6110a79190611bf6565b9050818460050160008282546110bd9190611be3565b90915550506006840180549060006110d483611b5e565b9190505550600160008781526020019081526020016000206040518060c00160405280336001600160a01b0316815260200188815260200142815260200187610e106111209190611bcc565b61112a9042611be3565b8152346020808301919091526001604092830181905284548082018655600095865294829020845160069096020180546001600160a01b0319166001600160a01b0390961695909517855590830151908401558101516002830155606081015160038301556080810151600483015560a001516005909101805460ff19169115159190911790558215611218576006546040516302cfef0f60e51b8152600481018890526001600160a01b03909116906359fde1e09085906024016000604051808303818588803b1580156111fe57600080fd5b505af1158015611212573d6000803e3d6000fd5b50505050505b81156112c25783546040516000916001600160a01b03169084908381818185875af1925050503d806000811461126a576040519150601f19603f3d011682016040523d82523d6000602084013e61126f565b606091505b50509050806112c05760405162461bcd60e51b815260206004820152601760248201527f43726561746f72207472616e73666572206661696c656400000000000000000060448201526064016105f0565b505b60408051868152346020820152339188917f1bcea300e852eb62fe74ae629da22c0f2fe0e266683d6a61be7b3c1327f64036910160405180910390a3505050505050565b6005546001600160a01b031633146113305760405162461bcd60e51b81526004016105f090611e96565b6001600160a01b0381166113785760405162461bcd60e51b815260206004820152600f60248201526e496e76616c6964206164647265737360881b60448201526064016105f0565b600680546001600160a01b038381166001600160a01b031983168117909355604080519190921680825260208201939093527fdeafb3cc563347555625b5863ac500302d91de2e5c80e5c57ef842af645a2478910160405180910390a15050565b6005546001600160a01b031633146114035760405162461bcd60e51b81526004016105f090611e96565b478061143b5760405162461bcd60e51b81526020600482015260076024820152664e6f206665657360c81b60448201526064016105f0565b6005546040516000916001600160a01b03169083908381818185875af1925050503d8060008114611488576040519150601f19603f3d011682016040523d82523d6000602084013e61148d565b606091505b50509050806114d05760405162461bcd60e51b815260206004820152600f60248201526e151c985b9cd9995c8819985a5b1959608a1b60448201526064016105f0565b5050565b606060016000838152602001908152602001600020805480602002602001604051908101604052809291908181526020016000905b8282101561157f5760008481526020908190206040805160c0810182526006860290920180546001600160a01b031683526001808201548486015260028201549284019290925260038101546060840152600481015460808401526005015460ff16151560a08301529083529092019101611509565b505050509050919050565b6005546001600160a01b031633146115b45760405162461bcd60e51b81526004016105f090611e96565b6001600160a01b0381166115f95760405162461bcd60e51b815260206004820152600c60248201526b5a65726f206164647265737360a01b60448201526064016105f0565b600580546001600160a01b0319166001600160a01b0392909216919091179055565b60008181526020819052604090205481906001600160a01b031633146116535760405162461bcd60e51b81526004016105f090611ba3565b6000828152602081905260409020600601546116a45760405162461bcd60e51b815260206004820152601060248201526f576173206e657665722061637469766560801b60448201526064016105f0565b600082815260208190526040808220600901805460ff191660011790555183917f7cce21c1f4552995dccace889e9ad45febf59c654d3fd1d7ab0457fa1439aa2c91a25050565b828054828255906000526020600020908101928215611731579160200282015b8281111561173157825182906117219082611da7565b509160200191906001019061170b565b5061173d929150611741565b5090565b8082111561173d576000611755828261175e565b50600101611741565b50805461176a90611c18565b6000825580601f1061177a575050565b601f016020900490600052602060002090810190611798919061179b565b50565b5b8082111561173d576000815560010161179c565b600080604083850312156117c357600080fd5b50508035926020909101359150565b6020808252825182820181905260009190848201906040850190845b8181101561180a578351835292840192918401916001016117ee565b50909695505050505050565b60006020828403121561182857600080fd5b5035919050565b6000806040838503121561184257600080fd5b82359150602083013560ff8116811461185a57600080fd5b809150509250929050565b6000815180845260005b8181101561188b5760208185018101518683018201520161186f565b506000602082860101526020601f19601f83011685010191505092915050565b6001600160a01b038a168152610120602082018190526000906118d08382018c611865565b905082810360408401526118e4818b611865565b60608401999099525050608081019590955260a085019390935260c084019190915260e08301521515610100909101529392505050565b80356001600160a01b038116811461193257600080fd5b919050565b60006020828403121561194957600080fd5b610f5c8261191b565b6000806040838503121561196557600080fd5b61196e8361191b565b946020939093013593505050565b6000806040838503121561198f57600080fd5b8235915061199f6020840161191b565b90509250929050565b60008083601f8401126119ba57600080fd5b50813567ffffffffffffffff8111156119d257600080fd5b6020830191508360208285010111156119ea57600080fd5b9250929050565b60008060008060008060006080888a031215611a0c57600080fd5b873567ffffffffffffffff80821115611a2457600080fd5b611a308b838c016119a8565b909950975060208a0135915080821115611a4957600080fd5b611a558b838c016119a8565b909750955060408a0135915080821115611a6e57600080fd5b818a0191508a601f830112611a8257600080fd5b813581811115611a9157600080fd5b8b60208260051b8501011115611aa657600080fd5b6020830195508094505050506060880135905092959891949750929550565b602080825282518282018190526000919060409081850190868401855b82811015611b3b57815180516001600160a01b0316855286810151878601528581015186860152606080820151908601526080808201519086015260a09081015115159085015260c09093019290850190600101611ae2565b5091979650505050505050565b634e487b7160e01b600052601160045260246000fd5b600060018201611b7057611b70611b48565b5060010190565b634e487b7160e01b600052604160045260246000fd5b634e487b7160e01b600052603260045260246000fd5b6020808252600f908201526e2737ba1030b3b2b73a1037bbb732b960891b604082015260600190565b80820281158282048414176105b2576105b2611b48565b808201808211156105b2576105b2611b48565b600082611c1357634e487b7160e01b600052601260045260246000fd5b500490565b600181811c90821680611c2c57607f821691505b602082108103611c4c57634e487b7160e01b600052602260045260246000fd5b50919050565b604051601f8201601f1916810167ffffffffffffffff81118282101715611c7b57611c7b611b77565b604052919050565b600067ffffffffffffffff80841115611c9e57611c9e611b77565b8360051b6020611caf818301611c52565b868152918501918181019036841115611cc757600080fd5b865b84811015611d4c57803586811115611ce15760008081fd5b8801601f3681830112611cf45760008081fd5b813588811115611d0657611d06611b77565b611d17818301601f19168801611c52565b91508082523687828501011115611d2e5760008081fd5b80878401888401376000908201870152845250918301918301611cc9565b50979650505050505050565b601f821115611da257600081815260208120601f850160051c81016020861015611d7f5750805b601f850160051c820191505b81811015611d9e57828155600101611d8b565b5050505b505050565b815167ffffffffffffffff811115611dc157611dc1611b77565b611dd581611dcf8454611c18565b84611d58565b602080601f831160018114611e0a5760008415611df25750858301515b600019600386901b1c1916600185901b178555611d9e565b600085815260208120601f198616915b82811015611e3957888601518255948401946001909101908401611e1a565b5085821015611e575787850151600019600388901b60f8161c191681555b5050505050600190811b01905550565b60208152816020820152818360408301376000818301604090810191909152601f909201601f19160101919050565b6020808252600990820152682737ba1037bbb732b960b91b60408201526060019056fea26469706673582212203efec4ed55debfcd6e5fccf9e8e64b259b28e5f8db8049eb4a9c6a2af42f71a664736f6c63430008140033","opcodes":"PUSH1 0x80 PUSH1 0x40 MSTORE CALLVALUE DUP1 ISZERO PUSH2 0x10 JUMPI PUSH1 0x0 DUP1 REVERT JUMPDEST POP PUSH1 0x40 MLOAD PUSH2 0x1F90 CODESIZE SUB DUP1 PUSH2 0x1F90 DUP4 CODECOPY DUP2 ADD PUSH1 0x40 DUP2 SWAP1 MSTORE PUSH2 0x2F SWAP2 PUSH2 0x62 JUMP JUMPDEST PUSH1 0x5 DUP1 SLOAD CALLER PUSH1 0x1 PUSH1 0x1 PUSH1 0xA0 SHL SUB NOT SWAP2 DUP3 AND OR SWAP1 SWAP2 SSTORE PUSH1 0x6 DUP1 SLOAD SWAP1 SWAP2 AND PUSH1 0x1 PUSH1 0x1 PUSH1 0xA0 SHL SUB SWAP3 SWAP1 SWAP3 AND SWAP2 SWAP1 SWAP2 OR SWAP1 SSTORE PUSH2 0x92 JUMP JUMPDEST PUSH1 0x0 PUSH1 0x20 DUP3 DUP5 SUB SLT ISZERO PUSH2 0x74 JUMPI PUSH1 0x0 DUP1 REVERT JUMPDEST DUP2 MLOAD PUSH1 0x1 PUSH1 0x1 PUSH1 0xA0 SHL SUB DUP2 AND DUP2 EQ PUSH2 0x8B JUMPI PUSH1 0x0 DUP1 REVERT JUMPDEST SWAP4 SWAP3 POP POP POP JUMP JUMPDEST PUSH2 0x1EEF DUP1 PUSH2 0xA1 PUSH1 0x0 CODECOPY PUSH1 0x0 RETURN INVALID PUSH1 0x80 PUSH1 0x40 MSTORE PUSH1 0x4 CALLDATASIZE LT PUSH2 0x12E JUMPI PUSH1 0x0 CALLDATALOAD PUSH1 0xE0 SHR DUP1 PUSH4 0x766F66D0 GT PUSH2 0xAB JUMPI DUP1 PUSH4 0xA99BC409 GT PUSH2 0x6F JUMPI DUP1 PUSH4 0xA99BC409 EQ PUSH2 0x3C4 JUMPI DUP1 PUSH4 0xB7DC1284 EQ PUSH2 0x3E4 JUMPI DUP1 PUSH4 0xD0B7830B EQ PUSH2 0x3FA JUMPI DUP1 PUSH4 0xD496498F EQ PUSH2 0x40F JUMPI DUP1 PUSH4 0xF2FDE38B EQ PUSH2 0x43C JUMPI DUP1 PUSH4 0xFD610317 EQ PUSH2 0x45C JUMPI PUSH1 0x0 DUP1 REVERT JUMPDEST DUP1 PUSH4 0x766F66D0 EQ PUSH2 0x331 JUMPI DUP1 PUSH4 0x82367B2D EQ PUSH2 0x351 JUMPI DUP1 PUSH4 0x893E5544 EQ PUSH2 0x371 JUMPI DUP1 PUSH4 0x8DA5CB5B EQ PUSH2 0x391 JUMPI DUP1 PUSH4 0x9A9E6BB5 EQ PUSH2 0x3B1 JUMPI PUSH1 0x0 DUP1 REVERT JUMPDEST DUP1 PUSH4 0x3D46519D GT PUSH2 0xF2 JUMPI DUP1 PUSH4 0x3D46519D EQ PUSH2 0x21F JUMPI DUP1 PUSH4 0x4435C101 EQ PUSH2 0x23F JUMPI DUP1 PUSH4 0x513856C8 EQ PUSH2 0x298 JUMPI DUP1 PUSH4 0x51CA9FF9 EQ PUSH2 0x2B8 JUMPI DUP1 PUSH4 0x76454486 EQ PUSH2 0x2E6 JUMPI PUSH1 0x0 DUP1 REVERT JUMPDEST DUP1 PUSH4 0x7261960 EQ PUSH2 0x13A JUMPI DUP1 PUSH4 0xC56AE3B EQ PUSH2 0x170 JUMPI DUP1 PUSH4 0x11BA6B4A EQ PUSH2 0x1A8 JUMPI DUP1 PUSH4 0x22F825CC EQ PUSH2 0x1CA JUMPI DUP1 PUSH4 0x2DE5AAF7 EQ PUSH2 0x1EA JUMPI PUSH1 0x0 DUP1 REVERT JUMPDEST CALLDATASIZE PUSH2 0x135 JUMPI STOP JUMPDEST PUSH1 0x0 DUP1 REVERT JUMPDEST CALLVALUE DUP1 ISZERO PUSH2 0x146 JUMPI PUSH1 0x0 DUP1 REVERT JUMPDEST POP PUSH2 0x15A PUSH2 0x155 CALLDATASIZE PUSH1 0x4 PUSH2 0x17B0 JUMP JUMPDEST PUSH2 0x47C JUMP JUMPDEST PUSH1 0x40 MLOAD PUSH2 0x167 SWAP2 SWAP1 PUSH2 0x17D2 JUMP JUMPDEST PUSH1 0x40 MLOAD DUP1 SWAP2 SUB SWAP1 RETURN JUMPDEST CALLVALUE DUP1 ISZERO PUSH2 0x17C JUMPI PUSH1 0x0 DUP1 REVERT JUMPDEST POP PUSH1 0x6 SLOAD PUSH2 0x190 SWAP1 PUSH1 0x1 PUSH1 0x1 PUSH1 0xA0 SHL SUB AND DUP2 JUMP JUMPDEST PUSH1 0x40 MLOAD PUSH1 0x1 PUSH1 0x1 PUSH1 0xA0 SHL SUB SWAP1 SWAP2 AND DUP2 MSTORE PUSH1 0x20 ADD PUSH2 0x167 JUMP JUMPDEST CALLVALUE DUP1 ISZERO PUSH2 0x1B4 JUMPI PUSH1 0x0 DUP1 REVERT JUMPDEST POP PUSH2 0x1C8 PUSH2 0x1C3 CALLDATASIZE PUSH1 0x4 PUSH2 0x1816 JUMP JUMPDEST PUSH2 0x5B8 JUMP JUMPDEST STOP JUMPDEST CALLVALUE DUP1 ISZERO PUSH2 0x1D6 JUMPI PUSH1 0x0 DUP1 REVERT JUMPDEST POP PUSH2 0x1C8 PUSH2 0x1E5 CALLDATASIZE PUSH1 0x4 PUSH2 0x182F JUMP JUMPDEST PUSH2 0x63D JUMP JUMPDEST CALLVALUE DUP1 ISZERO PUSH2 0x1F6 JUMPI PUSH1 0x0 DUP1 REVERT JUMPDEST POP PUSH2 0x20A PUSH2 0x205 CALLDATASIZE PUSH1 0x4 PUSH2 0x1816 JUMP JUMPDEST PUSH2 0x7F5 JUMP JUMPDEST PUSH1 0x40 MLOAD PUSH2 0x167 SWAP10 SWAP9 SWAP8 SWAP7 SWAP6 SWAP5 SWAP4 SWAP3 SWAP2 SWAP1 PUSH2 0x18AB JUMP JUMPDEST CALLVALUE DUP1 ISZERO PUSH2 0x22B JUMPI PUSH1 0x0 DUP1 REVERT JUMPDEST POP PUSH2 0x15A PUSH2 0x23A CALLDATASIZE PUSH1 0x4 PUSH2 0x1937 JUMP JUMPDEST PUSH2 0x98C JUMP JUMPDEST CALLVALUE DUP1 ISZERO PUSH2 0x24B JUMPI PUSH1 0x0 DUP1 REVERT JUMPDEST POP PUSH2 0x25F PUSH2 0x25A CALLDATASIZE PUSH1 0x4 PUSH2 0x17B0 JUMP JUMPDEST PUSH2 0x9F8 JUMP JUMPDEST PUSH1 0x40 DUP1 MLOAD PUSH1 0x1 PUSH1 0x1 PUSH1 0xA0 SHL SUB SWAP1 SWAP8 AND DUP8 MSTORE PUSH1 0x20 DUP8 ADD SWAP6 SWAP1 SWAP6 MSTORE SWAP4 DUP6 ADD SWAP3 SWAP1 SWAP3 MSTORE PUSH1 0x60 DUP5 ADD MSTORE PUSH1 0x80 DUP4 ADD MSTORE ISZERO ISZERO PUSH1 0xA0 DUP3 ADD MSTORE PUSH1 0xC0 ADD PUSH2 0x167 JUMP JUMPDEST CALLVALUE DUP1 ISZERO PUSH2 0x2A4 JUMPI PUSH1 0x0 DUP1 REVERT JUMPDEST POP PUSH2 0x20A PUSH2 0x2B3 CALLDATASIZE PUSH1 0x4 PUSH2 0x1816 JUMP JUMPDEST PUSH2 0xA59 JUMP JUMPDEST CALLVALUE DUP1 ISZERO PUSH2 0x2C4 JUMPI PUSH1 0x0 DUP1 REVERT JUMPDEST POP PUSH2 0x2D8 PUSH2 0x2D3 CALLDATASIZE PUSH1 0x4 PUSH2 0x1952 JUMP JUMPDEST PUSH2 0xBC0 JUMP JUMPDEST PUSH1 0x40 MLOAD SWAP1 DUP2 MSTORE PUSH1 0x20 ADD PUSH2 0x167 JUMP JUMPDEST CALLVALUE DUP1 ISZERO PUSH2 0x2F2 JUMPI PUSH1 0x0 DUP1 REVERT JUMPDEST POP PUSH2 0x321 PUSH2 0x301 CALLDATASIZE PUSH1 0x4 PUSH2 0x197C JUMP JUMPDEST PUSH1 0x3 PUSH1 0x20 SWAP1 DUP2 MSTORE PUSH1 0x0 SWAP3 DUP4 MSTORE PUSH1 0x40 DUP1 DUP5 KECCAK256 SWAP1 SWAP2 MSTORE SWAP1 DUP3 MSTORE SWAP1 KECCAK256 SLOAD PUSH1 0xFF AND DUP2 JUMP JUMPDEST PUSH1 0x40 MLOAD SWAP1 ISZERO ISZERO DUP2 MSTORE PUSH1 0x20 ADD PUSH2 0x167 JUMP JUMPDEST CALLVALUE DUP1 ISZERO PUSH2 0x33D JUMPI PUSH1 0x0 DUP1 REVERT JUMPDEST POP PUSH2 0x2D8 PUSH2 0x34C CALLDATASIZE PUSH1 0x4 PUSH2 0x19F1 JUMP JUMPDEST PUSH2 0xBF1 JUMP JUMPDEST CALLVALUE DUP1 ISZERO PUSH2 0x35D JUMPI PUSH1 0x0 DUP1 REVERT JUMPDEST POP PUSH2 0x1C8 PUSH2 0x36C CALLDATASIZE PUSH1 0x4 PUSH2 0x17B0 JUMP JUMPDEST PUSH2 0xE6E JUMP JUMPDEST CALLVALUE DUP1 ISZERO PUSH2 0x37D JUMPI PUSH1 0x0 DUP1 REVERT JUMPDEST POP PUSH2 0x2D8 PUSH2 0x38C CALLDATASIZE PUSH1 0x4 PUSH2 0x17B0 JUMP JUMPDEST PUSH2 0xF3F JUMP JUMPDEST CALLVALUE DUP1 ISZERO PUSH2 0x39D JUMPI PUSH1 0x0 DUP1 REVERT JUMPDEST POP PUSH1 0x5 SLOAD PUSH2 0x190 SWAP1 PUSH1 0x1 PUSH1 0x1 PUSH1 0xA0 SHL SUB AND DUP2 JUMP JUMPDEST PUSH2 0x1C8 PUSH2 0x3BF CALLDATASIZE PUSH1 0x4 PUSH2 0x17B0 JUMP JUMPDEST PUSH2 0xF63 JUMP JUMPDEST CALLVALUE DUP1 ISZERO PUSH2 0x3D0 JUMPI PUSH1 0x0 DUP1 REVERT JUMPDEST POP PUSH2 0x1C8 PUSH2 0x3DF CALLDATASIZE PUSH1 0x4 PUSH2 0x1937 JUMP JUMPDEST PUSH2 0x1306 JUMP JUMPDEST CALLVALUE DUP1 ISZERO PUSH2 0x3F0 JUMPI PUSH1 0x0 DUP1 REVERT JUMPDEST POP PUSH2 0x2D8 PUSH1 0x4 SLOAD DUP2 JUMP JUMPDEST CALLVALUE DUP1 ISZERO PUSH2 0x406 JUMPI PUSH1 0x0 DUP1 REVERT JUMPDEST POP PUSH2 0x1C8 PUSH2 0x13D9 JUMP JUMPDEST CALLVALUE DUP1 ISZERO PUSH2 0x41B JUMPI PUSH1 0x0 DUP1 REVERT JUMPDEST POP PUSH2 0x42F PUSH2 0x42A CALLDATASIZE PUSH1 0x4 PUSH2 0x1816 JUMP JUMPDEST PUSH2 0x14D4 JUMP JUMPDEST PUSH1 0x40 MLOAD PUSH2 0x167 SWAP2 SWAP1 PUSH2 0x1AC5 JUMP JUMPDEST CALLVALUE DUP1 ISZERO PUSH2 0x448 JUMPI PUSH1 0x0 DUP1 REVERT JUMPDEST POP PUSH2 0x1C8 PUSH2 0x457 CALLDATASIZE PUSH1 0x4 PUSH2 0x1937 JUMP JUMPDEST PUSH2 0x158A JUMP JUMPDEST CALLVALUE DUP1 ISZERO PUSH2 0x468 JUMPI PUSH1 0x0 DUP1 REVERT JUMPDEST POP PUSH2 0x1C8 PUSH2 0x477 CALLDATASIZE PUSH1 0x4 PUSH2 0x1816 JUMP JUMPDEST PUSH2 0x161B JUMP JUMPDEST PUSH1 0x60 PUSH1 0x0 PUSH1 0x1 JUMPDEST PUSH1 0x4 SLOAD DUP2 GT PUSH2 0x4C6 JUMPI PUSH1 0x0 DUP2 DUP2 MSTORE PUSH1 0x20 DUP2 SWAP1 MSTORE PUSH1 0x40 SWAP1 KECCAK256 PUSH1 0x9 ADD SLOAD PUSH1 0xFF AND ISZERO PUSH2 0x4B4 JUMPI DUP2 PUSH2 0x4B0 DUP2 PUSH2 0x1B5E JUMP JUMPDEST SWAP3 POP POP JUMPDEST DUP1 PUSH2 0x4BE DUP2 PUSH2 0x1B5E JUMP JUMPDEST SWAP2 POP POP PUSH2 0x483 JUMP JUMPDEST POP PUSH1 0x0 DUP4 DUP3 LT PUSH2 0x4D6 JUMPI DUP4 PUSH2 0x4D8 JUMP JUMPDEST DUP2 JUMPDEST PUSH8 0xFFFFFFFFFFFFFFFF DUP2 GT ISZERO PUSH2 0x4F0 JUMPI PUSH2 0x4F0 PUSH2 0x1B77 JUMP JUMPDEST PUSH1 0x40 MLOAD SWAP1 DUP1 DUP3 MSTORE DUP1 PUSH1 0x20 MUL PUSH1 0x20 ADD DUP3 ADD PUSH1 0x40 MSTORE DUP1 ISZERO PUSH2 0x519 JUMPI DUP2 PUSH1 0x20 ADD PUSH1 0x20 DUP3 MUL DUP1 CALLDATASIZE DUP4 CALLDATACOPY ADD SWAP1 POP JUMPDEST POP SWAP1 POP PUSH1 0x0 DUP1 PUSH1 0x1 JUMPDEST PUSH1 0x4 SLOAD DUP2 GT ISZERO DUP1 ISZERO PUSH2 0x534 JUMPI POP DUP4 MLOAD DUP4 LT JUMPDEST ISZERO PUSH2 0x5AA JUMPI PUSH1 0x0 DUP2 DUP2 MSTORE PUSH1 0x20 DUP2 SWAP1 MSTORE PUSH1 0x40 SWAP1 KECCAK256 PUSH1 0x9 ADD SLOAD PUSH1 0xFF AND ISZERO PUSH2 0x598 JUMPI DUP8 DUP3 LT ISZERO PUSH2 0x56D JUMPI DUP2 PUSH2 0x565 DUP2 PUSH2 0x1B5E JUMP JUMPDEST SWAP3 POP POP PUSH2 0x598 JUMP JUMPDEST DUP1 DUP5 DUP5 PUSH2 0x579 DUP2 PUSH2 0x1B5E JUMP JUMPDEST SWAP6 POP DUP2 MLOAD DUP2 LT PUSH2 0x58B JUMPI PUSH2 0x58B PUSH2 0x1B8D JUMP JUMPDEST PUSH1 0x20 MUL PUSH1 0x20 ADD ADD DUP2 DUP2 MSTORE POP POP JUMPDEST DUP1 PUSH2 0x5A2 DUP2 PUSH2 0x1B5E JUMP JUMPDEST SWAP2 POP POP PUSH2 0x522 JUMP JUMPDEST POP SWAP2 SWAP4 POP POP POP POP JUMPDEST SWAP3 SWAP2 POP POP JUMP JUMPDEST PUSH1 0x0 DUP2 DUP2 MSTORE PUSH1 0x20 DUP2 SWAP1 MSTORE PUSH1 0x40 SWAP1 KECCAK256 SLOAD DUP2 SWAP1 PUSH1 0x1 PUSH1 0x1 PUSH1 0xA0 SHL SUB AND CALLER EQ PUSH2 0x5F9 JUMPI PUSH1 0x40 MLOAD PUSH3 0x461BCD PUSH1 0xE5 SHL DUP2 MSTORE PUSH1 0x4 ADD PUSH2 0x5F0 SWAP1 PUSH2 0x1BA3 JUMP JUMPDEST PUSH1 0x40 MLOAD DUP1 SWAP2 SUB SWAP1 REVERT JUMPDEST PUSH1 0x0 DUP3 DUP2 MSTORE PUSH1 0x20 DUP2 SWAP1 MSTORE PUSH1 0x40 DUP1 DUP3 KECCAK256 PUSH1 0x9 ADD DUP1 SLOAD PUSH1 0xFF NOT AND SWAP1 SSTORE MLOAD DUP4 SWAP2 PUSH32 0xC2FB7F8575AC3990E70361684EDFC4D283931EA9A03DFA28766BF376A3934AA2 SWAP2 LOG2 POP POP JUMP JUMPDEST PUSH1 0x1 DUP2 PUSH1 0xFF AND LT ISZERO DUP1 ISZERO PUSH2 0x655 JUMPI POP PUSH1 0x5 DUP2 PUSH1 0xFF AND GT ISZERO JUMPDEST PUSH2 0x68E JUMPI PUSH1 0x40 MLOAD PUSH3 0x461BCD PUSH1 0xE5 SHL DUP2 MSTORE PUSH1 0x20 PUSH1 0x4 DUP3 ADD MSTORE PUSH1 0xA PUSH1 0x24 DUP3 ADD MSTORE PUSH10 0x526174696E6720312D35 PUSH1 0xB0 SHL PUSH1 0x44 DUP3 ADD MSTORE PUSH1 0x64 ADD PUSH2 0x5F0 JUMP JUMPDEST PUSH1 0x0 DUP3 DUP2 MSTORE PUSH1 0x3 PUSH1 0x20 SWAP1 DUP2 MSTORE PUSH1 0x40 DUP1 DUP4 KECCAK256 CALLER DUP5 MSTORE SWAP1 SWAP2 MSTORE SWAP1 KECCAK256 SLOAD PUSH1 0xFF AND ISZERO PUSH2 0x6E8 JUMPI PUSH1 0x40 MLOAD PUSH3 0x461BCD PUSH1 0xE5 SHL DUP2 MSTORE PUSH1 0x20 PUSH1 0x4 DUP3 ADD MSTORE PUSH1 0xD PUSH1 0x24 DUP3 ADD MSTORE PUSH13 0x105B1C9958591E481C985D1959 PUSH1 0x9A SHL PUSH1 0x44 DUP3 ADD MSTORE PUSH1 0x64 ADD PUSH2 0x5F0 JUMP JUMPDEST PUSH1 0x0 DUP3 DUP2 MSTORE PUSH1 0x20 DUP2 SWAP1 MSTORE PUSH1 0x40 SWAP1 KECCAK256 PUSH1 0x6 DUP2 ADD SLOAD PUSH2 0x738 JUMPI PUSH1 0x40 MLOAD PUSH3 0x461BCD PUSH1 0xE5 SHL DUP2 MSTORE PUSH1 0x20 PUSH1 0x4 DUP3 ADD MSTORE PUSH1 0xE PUSH1 0x24 DUP3 ADD MSTORE PUSH14 0x139BC81C995B9D185B1CC81E595D PUSH1 0x92 SHL PUSH1 0x44 DUP3 ADD MSTORE PUSH1 0x64 ADD PUSH2 0x5F0 JUMP JUMPDEST PUSH1 0x0 DUP4 DUP2 MSTORE PUSH1 0x3 PUSH1 0x20 SWAP1 DUP2 MSTORE PUSH1 0x40 DUP1 DUP4 KECCAK256 CALLER DUP5 MSTORE SWAP1 SWAP2 MSTORE DUP2 KECCAK256 DUP1 SLOAD PUSH1 0xFF NOT AND PUSH1 0x1 OR SWAP1 SSTORE PUSH2 0x76A PUSH1 0xFF DUP5 AND PUSH1 0x64 PUSH2 0x1BCC JUMP JUMPDEST DUP3 PUSH1 0x8 ADD SLOAD DUP4 PUSH1 0x7 ADD SLOAD PUSH2 0x77E SWAP2 SWAP1 PUSH2 0x1BCC JUMP JUMPDEST PUSH2 0x788 SWAP2 SWAP1 PUSH2 0x1BE3 JUMP JUMPDEST PUSH1 0x8 DUP4 ADD DUP1 SLOAD SWAP2 SWAP3 POP PUSH1 0x0 PUSH2 0x79C DUP4 PUSH2 0x1B5E JUMP JUMPDEST SWAP1 SWAP2 SSTORE POP POP PUSH1 0x8 DUP3 ADD SLOAD PUSH2 0x7B0 SWAP1 DUP3 PUSH2 0x1BF6 JUMP JUMPDEST PUSH1 0x7 DUP4 ADD SSTORE PUSH1 0x40 MLOAD PUSH1 0xFF DUP5 AND DUP2 MSTORE CALLER SWAP1 DUP6 SWAP1 PUSH32 0x3F89F4B64CBFDDCE65251A2C96ABE43618693AE1DE8BC6CB21193CC2DCD3035 SWAP1 PUSH1 0x20 ADD PUSH1 0x40 MLOAD DUP1 SWAP2 SUB SWAP1 LOG3 POP POP POP POP JUMP JUMPDEST PUSH1 0x0 DUP2 DUP2 MSTORE PUSH1 0x20 DUP2 SWAP1 MSTORE PUSH1 0x40 DUP2 KECCAK256 DUP1 SLOAD PUSH1 0x4 DUP3 ADD SLOAD PUSH1 0x5 DUP4 ADD SLOAD PUSH1 0x6 DUP5 ADD SLOAD PUSH1 0x7 DUP6 ADD SLOAD PUSH1 0x8 DUP7 ADD SLOAD PUSH1 0x9 DUP8 ADD SLOAD PUSH1 0x1 DUP9 ADD DUP1 SLOAD PUSH1 0x60 SWAP10 DUP11 SWAP10 DUP13 SWAP10 DUP11 SWAP10 DUP11 SWAP10 DUP11 SWAP10 DUP11 SWAP10 DUP11 SWAP10 SWAP7 SWAP9 PUSH1 0x1 PUSH1 0x1 PUSH1 0xA0 SHL SUB SWAP1 SWAP7 AND SWAP8 SWAP6 SWAP7 PUSH1 0x2 DUP11 ADD SWAP7 PUSH1 0xFF SWAP1 SWAP2 AND SWAP1 DUP9 SWAP1 PUSH2 0x860 SWAP1 PUSH2 0x1C18 JUMP JUMPDEST DUP1 PUSH1 0x1F ADD PUSH1 0x20 DUP1 SWAP2 DIV MUL PUSH1 0x20 ADD PUSH1 0x40 MLOAD SWAP1 DUP2 ADD PUSH1 0x40 MSTORE DUP1 SWAP3 SWAP2 SWAP1 DUP2 DUP2 MSTORE PUSH1 0x20 ADD DUP3 DUP1 SLOAD PUSH2 0x88C SWAP1 PUSH2 0x1C18 JUMP JUMPDEST DUP1 ISZERO PUSH2 0x8D9 JUMPI DUP1 PUSH1 0x1F LT PUSH2 0x8AE JUMPI PUSH2 0x100 DUP1 DUP4 SLOAD DIV MUL DUP4 MSTORE SWAP2 PUSH1 0x20 ADD SWAP2 PUSH2 0x8D9 JUMP JUMPDEST DUP3 ADD SWAP2 SWAP1 PUSH1 0x0 MSTORE PUSH1 0x20 PUSH1 0x0 KECCAK256 SWAP1 JUMPDEST DUP2 SLOAD DUP2 MSTORE SWAP1 PUSH1 0x1 ADD SWAP1 PUSH1 0x20 ADD DUP1 DUP4 GT PUSH2 0x8BC JUMPI DUP3 SWAP1 SUB PUSH1 0x1F AND DUP3 ADD SWAP2 JUMPDEST POP POP POP POP POP SWAP8 POP DUP7 DUP1 SLOAD PUSH2 0x8EC SWAP1 PUSH2 0x1C18 JUMP JUMPDEST DUP1 PUSH1 0x1F ADD PUSH1 0x20 DUP1 SWAP2 DIV MUL PUSH1 0x20 ADD PUSH1 0x40 MLOAD SWAP1 DUP2 ADD PUSH1 0x40 MSTORE DUP1 SWAP3 SWAP2 SWAP1 DUP2 DUP2 MSTORE PUSH1 0x20 ADD DUP3 DUP1 SLOAD PUSH2 0x918 SWAP1 PUSH2 0x1C18 JUMP JUMPDEST DUP1 ISZERO PUSH2 0x965 JUMPI DUP1 PUSH1 0x1F LT PUSH2 0x93A JUMPI PUSH2 0x100 DUP1 DUP4 SLOAD DIV MUL DUP4 MSTORE SWAP2 PUSH1 0x20 ADD SWAP2 PUSH2 0x965 JUMP JUMPDEST DUP3 ADD SWAP2 SWAP1 PUSH1 0x0 MSTORE PUSH1 0x20 PUSH1 0x0 KECCAK256 SWAP1 JUMPDEST DUP2 SLOAD DUP2 MSTORE SWAP1 PUSH1 0x1 ADD SWAP1 PUSH1 0x20 ADD DUP1 DUP4 GT PUSH2 0x948 JUMPI DUP3 SWAP1 SUB PUSH1 0x1F AND DUP3 ADD SWAP2 JUMPDEST POP POP POP POP POP SWAP7 POP SWAP10 POP SWAP10 POP SWAP10 POP SWAP10 POP SWAP10 POP SWAP10 POP SWAP10 POP SWAP10 POP SWAP10 POP POP SWAP2 SWAP4 SWAP6 SWAP8 SWAP10 SWAP1 SWAP3 SWAP5 SWAP7 SWAP9 POP JUMP JUMPDEST PUSH1 0x1 PUSH1 0x1 PUSH1 0xA0 SHL SUB DUP2 AND PUSH1 0x0 SWAP1 DUP2 MSTORE PUSH1 0x2 PUSH1 0x20 SWAP1 DUP2 MSTORE PUSH1 0x40 SWAP2 DUP3 SWAP1 KECCAK256 DUP1 SLOAD DUP4 MLOAD DUP2 DUP5 MUL DUP2 ADD DUP5 ADD SWAP1 SWAP5 MSTORE DUP1 DUP5 MSTORE PUSH1 0x60 SWAP4 SWAP3 DUP4 ADD DUP3 DUP3 DUP1 ISZERO PUSH2 0x9EC JUMPI PUSH1 0x20 MUL DUP3 ADD SWAP2 SWAP1 PUSH1 0x0 MSTORE PUSH1 0x20 PUSH1 0x0 KECCAK256 SWAP1 JUMPDEST DUP2 SLOAD DUP2 MSTORE PUSH1 0x20 ADD SWAP1 PUSH1 0x1 ADD SWAP1 DUP1 DUP4 GT PUSH2 0x9D8 JUMPI JUMPDEST POP POP POP POP POP SWAP1 POP SWAP2 SWAP1 POP JUMP JUMPDEST PUSH1 0x1 PUSH1 0x20 MSTORE DUP2 PUSH1 0x0 MSTORE PUSH1 0x40 PUSH1 0x0 KECCAK256 DUP2 DUP2 SLOAD DUP2 LT PUSH2 0xA14 JUMPI PUSH1 0x0 DUP1 REVERT JUMPDEST PUSH1 0x0 SWAP2 DUP3 MSTORE PUSH1 0x20 SWAP1 SWAP2 KECCAK256 PUSH1 0x6 SWAP1 SWAP2 MUL ADD DUP1 SLOAD PUSH1 0x1 DUP3 ADD SLOAD PUSH1 0x2 DUP4 ADD SLOAD PUSH1 0x3 DUP5 ADD SLOAD PUSH1 0x4 DUP6 ADD SLOAD PUSH1 0x5 SWAP1 SWAP6 ADD SLOAD PUSH1 0x1 PUSH1 0x1 PUSH1 0xA0 SHL SUB SWAP1 SWAP5 AND SWAP7 POP SWAP2 SWAP5 POP SWAP3 SWAP1 SWAP2 PUSH1 0xFF AND DUP7 JUMP JUMPDEST PUSH1 0x0 PUSH1 0x20 DUP2 SWAP1 MSTORE SWAP1 DUP2 MSTORE PUSH1 0x40 SWAP1 KECCAK256 DUP1 SLOAD PUSH1 0x1 DUP3 ADD DUP1 SLOAD PUSH1 0x1 PUSH1 0x1 PUSH1 0xA0 SHL SUB SWAP1 SWAP3 AND SWAP3 SWAP2 PUSH2 0xA85 SWAP1 PUSH2 0x1C18 JUMP JUMPDEST DUP1 PUSH1 0x1F ADD PUSH1 0x20 DUP1 SWAP2 DIV MUL PUSH1 0x20 ADD PUSH1 0x40 MLOAD SWAP1 DUP2 ADD PUSH1 0x40 MSTORE DUP1 SWAP3 SWAP2 SWAP1 DUP2 DUP2 MSTORE PUSH1 0x20 ADD DUP3 DUP1 SLOAD PUSH2 0xAB1 SWAP1 PUSH2 0x1C18 JUMP JUMPDEST DUP1 ISZERO PUSH2 0xAFE JUMPI DUP1 PUSH1 0x1F LT PUSH2 0xAD3 JUMPI PUSH2 0x100 DUP1 DUP4 SLOAD DIV MUL DUP4 MSTORE SWAP2 PUSH1 0x20 ADD SWAP2 PUSH2 0xAFE JUMP JUMPDEST DUP3 ADD SWAP2 SWAP1 PUSH1 0x0 MSTORE PUSH1 0x20 PUSH1 0x0 KECCAK256 SWAP1 JUMPDEST DUP2 SLOAD DUP2 MSTORE SWAP1 PUSH1 0x1 ADD SWAP1 PUSH1 0x20 ADD DUP1 DUP4 GT PUSH2 0xAE1 JUMPI DUP3 SWAP1 SUB PUSH1 0x1F AND DUP3 ADD SWAP2 JUMPDEST POP POP POP POP POP SWAP1 DUP1 PUSH1 0x2 ADD DUP1 SLOAD PUSH2 0xB13 SWAP1 PUSH2 0x1C18 JUMP JUMPDEST DUP1 PUSH1 0x1F ADD PUSH1 0x20 DUP1 SWAP2 DIV MUL PUSH1 0x20 ADD PUSH1 0x40 MLOAD SWAP1 DUP2 ADD PUSH1 0x40 MSTORE DUP1 SWAP3 SWAP2 SWAP1 DUP2 DUP2 MSTORE PUSH1 0x20 ADD DUP3 DUP1 SLOAD PUSH2 0xB3F SWAP1 PUSH2 0x1C18 JUMP JUMPDEST DUP1 ISZERO PUSH2 0xB8C JUMPI DUP1 PUSH1 0x1F LT PUSH2 0xB61 JUMPI PUSH2 0x100 DUP1 DUP4 SLOAD DIV MUL DUP4 MSTORE SWAP2 PUSH1 0x20 ADD SWAP2 PUSH2 0xB8C JUMP JUMPDEST DUP3 ADD SWAP2 SWAP1 PUSH1 0x0 MSTORE PUSH1 0x20 PUSH1 0x0 KECCAK256 SWAP1 JUMPDEST DUP2 SLOAD DUP2 MSTORE SWAP1 PUSH1 0x1 ADD SWAP1 PUSH1 0x20 ADD DUP1 DUP4 GT PUSH2 0xB6F JUMPI DUP3 SWAP1 SUB PUSH1 0x1F AND DUP3 ADD SWAP2 JUMPDEST POP POP POP PUSH1 0x4 DUP5 ADD SLOAD PUSH1 0x5 DUP6 ADD SLOAD PUSH1 0x6 DUP7 ADD SLOAD PUSH1 0x7 DUP8 ADD SLOAD PUSH1 0x8 DUP9 ADD SLOAD PUSH1 0x9 SWAP1 SWAP9 ADD SLOAD SWAP7 SWAP8 SWAP4 SWAP7 SWAP3 SWAP6 POP SWAP1 SWAP4 POP SWAP2 SWAP1 PUSH1 0xFF AND DUP10 JUMP JUMPDEST PUSH1 0x2 PUSH1 0x20 MSTORE DUP2 PUSH1 0x0 MSTORE PUSH1 0x40 PUSH1 0x0 KECCAK256 DUP2 DUP2 SLOAD DUP2 LT PUSH2 0xBDC JUMPI PUSH1 0x0 DUP1 REVERT JUMPDEST SWAP1 PUSH1 0x0 MSTORE PUSH1 0x20 PUSH1 0x0 KECCAK256 ADD PUSH1 0x0 SWAP2 POP SWAP2 POP POP SLOAD DUP2 JUMP JUMPDEST PUSH1 0x0 DUP1 DUP3 GT PUSH2 0xC33 JUMPI PUSH1 0x40 MLOAD PUSH3 0x461BCD PUSH1 0xE5 SHL DUP2 MSTORE PUSH1 0x20 PUSH1 0x4 DUP3 ADD MSTORE PUSH1 0xE PUSH1 0x24 DUP3 ADD MSTORE PUSH14 0x5072696365206D757374203E203 PUSH1 0x94 SHL PUSH1 0x44 DUP3 ADD MSTORE PUSH1 0x64 ADD PUSH2 0x5F0 JUMP JUMPDEST DUP7 PUSH2 0xC70 JUMPI PUSH1 0x40 MLOAD PUSH3 0x461BCD PUSH1 0xE5 SHL DUP2 MSTORE PUSH1 0x20 PUSH1 0x4 DUP3 ADD MSTORE PUSH1 0xD PUSH1 0x24 DUP3 ADD MSTORE PUSH13 0x13985B59481C995C5D5A5C9959 PUSH1 0x9A SHL PUSH1 0x44 DUP3 ADD MSTORE PUSH1 0x64 ADD PUSH2 0x5F0 JUMP JUMPDEST PUSH1 0x4 DUP1 SLOAD SWAP1 PUSH1 0x0 PUSH2 0xC80 DUP4 PUSH2 0x1B5E JUMP JUMPDEST SWAP1 SWAP2 SSTORE POP POP PUSH1 0x4 SLOAD PUSH1 0x40 DUP1 MLOAD PUSH2 0x140 DUP2 ADD DUP3 MSTORE CALLER DUP2 MSTORE DUP2 MLOAD PUSH1 0x20 PUSH1 0x1F DUP13 ADD DUP2 SWAP1 DIV DUP2 MUL DUP3 ADD DUP2 ADD SWAP1 SWAP4 MSTORE DUP11 DUP2 MSTORE SWAP1 SWAP2 DUP1 DUP4 ADD SWAP2 SWAP1 DUP13 SWAP1 DUP13 SWAP1 DUP2 SWAP1 DUP5 ADD DUP4 DUP3 DUP1 DUP3 DUP5 CALLDATACOPY PUSH1 0x0 SWAP3 ADD SWAP2 SWAP1 SWAP2 MSTORE POP POP POP SWAP1 DUP3 MSTORE POP PUSH1 0x40 DUP1 MLOAD PUSH1 0x20 PUSH1 0x1F DUP12 ADD DUP2 SWAP1 DIV DUP2 MUL DUP3 ADD DUP2 ADD SWAP1 SWAP3 MSTORE DUP10 DUP2 MSTORE SWAP2 DUP2 ADD SWAP2 SWAP1 DUP11 SWAP1 DUP11 SWAP1 DUP2 SWAP1 DUP5 ADD DUP4 DUP3 DUP1 DUP3 DUP5 CALLDATACOPY PUSH1 0x0 SWAP3 ADD SWAP2 SWAP1 SWAP2 MSTORE POP POP POP SWAP1 DUP3 MSTORE POP PUSH1 0x20 ADD PUSH2 0xD19 DUP7 DUP9 PUSH2 0x1C83 JUMP JUMPDEST DUP2 MSTORE PUSH1 0x20 DUP1 DUP3 ADD DUP7 SWAP1 MSTORE PUSH1 0x0 PUSH1 0x40 DUP1 DUP5 ADD DUP3 SWAP1 MSTORE PUSH1 0x60 DUP5 ADD DUP3 SWAP1 MSTORE PUSH1 0x80 DUP5 ADD DUP3 SWAP1 MSTORE PUSH1 0xA0 DUP5 ADD DUP3 SWAP1 MSTORE PUSH1 0x1 PUSH1 0xC0 SWAP1 SWAP5 ADD DUP5 SWAP1 MSTORE DUP6 DUP3 MSTORE DUP2 DUP4 MSTORE SWAP1 KECCAK256 DUP4 MLOAD DUP2 SLOAD PUSH1 0x1 PUSH1 0x1 PUSH1 0xA0 SHL SUB NOT AND PUSH1 0x1 PUSH1 0x1 PUSH1 0xA0 SHL SUB SWAP1 SWAP2 AND OR DUP2 SSTORE SWAP1 DUP4 ADD MLOAD SWAP1 SWAP2 DUP3 ADD SWAP1 PUSH2 0xD83 SWAP1 DUP3 PUSH2 0x1DA7 JUMP JUMPDEST POP PUSH1 0x40 DUP3 ADD MLOAD PUSH1 0x2 DUP3 ADD SWAP1 PUSH2 0xD98 SWAP1 DUP3 PUSH2 0x1DA7 JUMP JUMPDEST POP PUSH1 0x60 DUP3 ADD MLOAD DUP1 MLOAD PUSH2 0xDB4 SWAP2 PUSH1 0x3 DUP5 ADD SWAP2 PUSH1 0x20 SWAP1 SWAP2 ADD SWAP1 PUSH2 0x16EB JUMP JUMPDEST POP PUSH1 0x80 DUP3 ADD MLOAD PUSH1 0x4 DUP3 ADD SSTORE PUSH1 0xA0 DUP3 ADD MLOAD PUSH1 0x5 DUP3 ADD SSTORE PUSH1 0xC0 DUP3 ADD MLOAD PUSH1 0x6 DUP3 ADD SSTORE PUSH1 0xE0 DUP3 ADD MLOAD PUSH1 0x7 DUP3 ADD SSTORE PUSH2 0x100 DUP3 ADD MLOAD PUSH1 0x8 DUP3 ADD SSTORE PUSH2 0x120 SWAP1 SWAP2 ADD MLOAD PUSH1 0x9 SWAP1 SWAP2 ADD DUP1 SLOAD PUSH1 0xFF NOT AND SWAP2 ISZERO ISZERO SWAP2 SWAP1 SWAP2 OR SWAP1 SSTORE CALLER PUSH1 0x0 DUP2 DUP2 MSTORE PUSH1 0x2 PUSH1 0x20 SWAP1 DUP2 MSTORE PUSH1 0x40 DUP1 DUP4 KECCAK256 DUP1 SLOAD PUSH1 0x1 DUP2 ADD DUP3 SSTORE SWAP1 DUP5 MSTORE SWAP2 SWAP1 SWAP3 KECCAK256 ADD DUP4 SWAP1 SSTORE MLOAD DUP3 SWAP1 PUSH32 0x3BAA75A7D8396BEC2037D577C6A8BB77AB67158A261D329A5B0B42D45C14F059 SWAP1 PUSH2 0xE5A SWAP1 DUP14 SWAP1 DUP14 SWAP1 PUSH2 0x1E67 JUMP JUMPDEST PUSH1 0x40 MLOAD DUP1 SWAP2 SUB SWAP1 LOG3 SWAP9 SWAP8 POP POP POP POP POP POP POP POP JUMP JUMPDEST PUSH1 0x0 DUP3 DUP2 MSTORE PUSH1 0x20 DUP2 SWAP1 MSTORE PUSH1 0x40 SWAP1 KECCAK256 SLOAD DUP3 SWAP1 PUSH1 0x1 PUSH1 0x1 PUSH1 0xA0 SHL SUB AND CALLER EQ PUSH2 0xEA6 JUMPI PUSH1 0x40 MLOAD PUSH3 0x461BCD PUSH1 0xE5 SHL DUP2 MSTORE PUSH1 0x4 ADD PUSH2 0x5F0 SWAP1 PUSH2 0x1BA3 JUMP JUMPDEST PUSH1 0x0 DUP3 GT PUSH2 0xEE7 JUMPI PUSH1 0x40 MLOAD PUSH3 0x461BCD PUSH1 0xE5 SHL DUP2 MSTORE PUSH1 0x20 PUSH1 0x4 DUP3 ADD MSTORE PUSH1 0xE PUSH1 0x24 DUP3 ADD MSTORE PUSH14 0x5072696365206D757374203E203 PUSH1 0x94 SHL PUSH1 0x44 DUP3 ADD MSTORE PUSH1 0x64 ADD PUSH2 0x5F0 JUMP JUMPDEST PUSH1 0x0 DUP4 DUP2 MSTORE PUSH1 0x20 DUP2 DUP2 MSTORE PUSH1 0x40 SWAP2 DUP3 SWAP1 KECCAK256 PUSH1 0x4 ADD DUP1 SLOAD SWAP1 DUP6 SWAP1 SSTORE DUP3 MLOAD DUP2 DUP2 MSTORE SWAP2 DUP3 ADD DUP6 SWAP1 MSTORE SWAP2 DUP6 SWAP2 PUSH32 0x15819DD2FD9F6418B142E798D08A18D0BF06EA368F4480B7B0D3F75BD966BC48 SWAP2 ADD PUSH1 0x40 MLOAD DUP1 SWAP2 SUB SWAP1 LOG2 POP POP POP POP JUMP JUMPDEST PUSH1 0x0 DUP3 DUP2 MSTORE PUSH1 0x20 DUP2 SWAP1 MSTORE PUSH1 0x40 DUP2 KECCAK256 PUSH1 0x4 ADD SLOAD PUSH2 0xF5C SWAP1 DUP4 SWAP1 PUSH2 0x1BCC JUMP JUMPDEST SWAP4 SWAP3 POP POP POP JUMP JUMPDEST PUSH1 0x0 DUP3 DUP2 MSTORE PUSH1 0x20 DUP2 SWAP1 MSTORE PUSH1 0x40 SWAP1 KECCAK256 PUSH1 0x9 DUP2 ADD SLOAD PUSH1 0xFF AND PUSH2 0xFB8 JUMPI PUSH1 0x40 MLOAD PUSH3 0x461BCD PUSH1 0xE5 SHL DUP2 MSTORE PUSH1 0x20 PUSH1 0x4 DUP3 ADD MSTORE PUSH1 0x10 PUSH1 0x24 DUP3 ADD MSTORE PUSH16 0x4167656E74206E6F7420616374697665 PUSH1 0x80 SHL PUSH1 0x44 DUP3 ADD MSTORE PUSH1 0x64 ADD PUSH2 0x5F0 JUMP JUMPDEST PUSH1 0x0 DUP3 GT PUSH2 0xFFC JUMPI PUSH1 0x40 MLOAD PUSH3 0x461BCD PUSH1 0xE5 SHL DUP2 MSTORE PUSH1 0x20 PUSH1 0x4 DUP3 ADD MSTORE PUSH1 0x11 PUSH1 0x24 DUP3 ADD MSTORE PUSH17 0x4475726174696F6E206D757374203E203 PUSH1 0x7C SHL PUSH1 0x44 DUP3 ADD MSTORE PUSH1 0x64 ADD PUSH2 0x5F0 JUMP JUMPDEST DUP2 DUP2 PUSH1 0x4 ADD SLOAD PUSH2 0x100C SWAP2 SWAP1 PUSH2 0x1BCC JUMP JUMPDEST CALLVALUE LT ISZERO PUSH2 0x1052 JUMPI PUSH1 0x40 MLOAD PUSH3 0x461BCD PUSH1 0xE5 SHL DUP2 MSTORE PUSH1 0x20 PUSH1 0x4 DUP3 ADD MSTORE PUSH1 0x14 PUSH1 0x24 DUP3 ADD MSTORE PUSH20 0x125B9CDD59999A58DA595B9D081C185E5B595B9D PUSH1 0x62 SHL PUSH1 0x44 DUP3 ADD MSTORE PUSH1 0x64 ADD PUSH2 0x5F0 JUMP JUMPDEST PUSH1 0x0 PUSH2 0x2710 PUSH2 0x1063 CALLVALUE PUSH2 0x1B58 PUSH2 0x1BCC JUMP JUMPDEST PUSH2 0x106D SWAP2 SWAP1 PUSH2 0x1BF6 JUMP JUMPDEST SWAP1 POP PUSH1 0x0 PUSH2 0x2710 PUSH2 0x1080 CALLVALUE PUSH2 0x7D0 PUSH2 0x1BCC JUMP JUMPDEST PUSH2 0x108A SWAP2 SWAP1 PUSH2 0x1BF6 JUMP JUMPDEST SWAP1 POP PUSH1 0x0 PUSH2 0x2710 PUSH2 0x109D CALLVALUE PUSH2 0x3E8 PUSH2 0x1BCC JUMP JUMPDEST PUSH2 0x10A7 SWAP2 SWAP1 PUSH2 0x1BF6 JUMP JUMPDEST SWAP1 POP DUP2 DUP5 PUSH1 0x5 ADD PUSH1 0x0 DUP3 DUP3 SLOAD PUSH2 0x10BD SWAP2 SWAP1 PUSH2 0x1BE3 JUMP JUMPDEST SWAP1 SWAP2 SSTORE POP POP PUSH1 0x6 DUP5 ADD DUP1 SLOAD SWAP1 PUSH1 0x0 PUSH2 0x10D4 DUP4 PUSH2 0x1B5E JUMP JUMPDEST SWAP2 SWAP1 POP SSTORE POP PUSH1 0x1 PUSH1 0x0 DUP8 DUP2 MSTORE PUSH1 0x20 ADD SWAP1 DUP2 MSTORE PUSH1 0x20 ADD PUSH1 0x0 KECCAK256 PUSH1 0x40 MLOAD DUP1 PUSH1 0xC0 ADD PUSH1 0x40 MSTORE DUP1 CALLER PUSH1 0x1 PUSH1 0x1 PUSH1 0xA0 SHL SUB AND DUP2 MSTORE PUSH1 0x20 ADD DUP9 DUP2 MSTORE PUSH1 0x20 ADD TIMESTAMP DUP2 MSTORE PUSH1 0x20 ADD DUP8 PUSH2 0xE10 PUSH2 0x1120 SWAP2 SWAP1 PUSH2 0x1BCC JUMP JUMPDEST PUSH2 0x112A SWAP1 TIMESTAMP PUSH2 0x1BE3 JUMP JUMPDEST DUP2 MSTORE CALLVALUE PUSH1 0x20 DUP1 DUP4 ADD SWAP2 SWAP1 SWAP2 MSTORE PUSH1 0x1 PUSH1 0x40 SWAP3 DUP4 ADD DUP2 SWAP1 MSTORE DUP5 SLOAD DUP1 DUP3 ADD DUP7 SSTORE PUSH1 0x0 SWAP6 DUP7 MSTORE SWAP5 DUP3 SWAP1 KECCAK256 DUP5 MLOAD PUSH1 0x6 SWAP1 SWAP7 MUL ADD DUP1 SLOAD PUSH1 0x1 PUSH1 0x1 PUSH1 0xA0 SHL SUB NOT AND PUSH1 0x1 PUSH1 0x1 PUSH1 0xA0 SHL SUB SWAP1 SWAP7 AND SWAP6 SWAP1 SWAP6 OR DUP6 SSTORE SWAP1 DUP4 ADD MLOAD SWAP1 DUP5 ADD SSTORE DUP2 ADD MLOAD PUSH1 0x2 DUP4 ADD SSTORE PUSH1 0x60 DUP2 ADD MLOAD PUSH1 0x3 DUP4 ADD SSTORE PUSH1 0x80 DUP2 ADD MLOAD PUSH1 0x4 DUP4 ADD SSTORE PUSH1 0xA0 ADD MLOAD PUSH1 0x5 SWAP1 SWAP2 ADD DUP1 SLOAD PUSH1 0xFF NOT AND SWAP2 ISZERO ISZERO SWAP2 SWAP1 SWAP2 OR SWAP1 SSTORE DUP3 ISZERO PUSH2 0x1218 JUMPI PUSH1 0x6 SLOAD PUSH1 0x40 MLOAD PUSH4 0x2CFEF0F PUSH1 0xE5 SHL DUP2 MSTORE PUSH1 0x4 DUP2 ADD DUP9 SWAP1 MSTORE PUSH1 0x1 PUSH1 0x1 PUSH1 0xA0 SHL SUB SWAP1 SWAP2 AND SWAP1 PUSH4 0x59FDE1E0 SWAP1 DUP6 SWAP1 PUSH1 0x24 ADD PUSH1 0x0 PUSH1 0x40 MLOAD DUP1 DUP4 SUB DUP2 DUP6 DUP9 DUP1 EXTCODESIZE ISZERO DUP1 ISZERO PUSH2 0x11FE JUMPI PUSH1 0x0 DUP1 REVERT JUMPDEST POP GAS CALL ISZERO DUP1 ISZERO PUSH2 0x1212 JUMPI RETURNDATASIZE PUSH1 0x0 DUP1 RETURNDATACOPY RETURNDATASIZE PUSH1 0x0 REVERT JUMPDEST POP POP POP POP POP JUMPDEST DUP2 ISZERO PUSH2 0x12C2 JUMPI DUP4 SLOAD PUSH1 0x40 MLOAD PUSH1 0x0 SWAP2 PUSH1 0x1 PUSH1 0x1 PUSH1 0xA0 SHL SUB AND SWAP1 DUP5 SWAP1 DUP4 DUP2 DUP2 DUP2 DUP6 DUP8 GAS CALL SWAP3 POP POP POP RETURNDATASIZE DUP1 PUSH1 0x0 DUP2 EQ PUSH2 0x126A JUMPI PUSH1 0x40 MLOAD SWAP2 POP PUSH1 0x1F NOT PUSH1 0x3F RETURNDATASIZE ADD AND DUP3 ADD PUSH1 0x40 MSTORE RETURNDATASIZE DUP3 MSTORE RETURNDATASIZE PUSH1 0x0 PUSH1 0x20 DUP5 ADD RETURNDATACOPY PUSH2 0x126F JUMP JUMPDEST PUSH1 0x60 SWAP2 POP JUMPDEST POP POP SWAP1 POP DUP1 PUSH2 0x12C0 JUMPI PUSH1 0x40 MLOAD PUSH3 0x461BCD PUSH1 0xE5 SHL DUP2 MSTORE PUSH1 0x20 PUSH1 0x4 DUP3 ADD MSTORE PUSH1 0x17 PUSH1 0x24 DUP3 ADD MSTORE PUSH32 0x43726561746F72207472616E73666572206661696C6564000000000000000000 PUSH1 0x44 DUP3 ADD MSTORE PUSH1 0x64 ADD PUSH2 0x5F0 JUMP JUMPDEST POP JUMPDEST PUSH1 0x40 DUP1 MLOAD DUP7 DUP2 MSTORE CALLVALUE PUSH1 0x20 DUP3 ADD MSTORE CALLER SWAP2 DUP9 SWAP2 PUSH32 0x1BCEA300E852EB62FE74AE629DA22C0F2FE0E266683D6A61BE7B3C1327F64036 SWAP2 ADD PUSH1 0x40 MLOAD DUP1 SWAP2 SUB SWAP1 LOG3 POP POP POP POP POP POP JUMP JUMPDEST PUSH1 0x5 SLOAD PUSH1 0x1 PUSH1 0x1 PUSH1 0xA0 SHL SUB AND CALLER EQ PUSH2 0x1330 JUMPI PUSH1 0x40 MLOAD PUSH3 0x461BCD PUSH1 0xE5 SHL DUP2 MSTORE PUSH1 0x4 ADD PUSH2 0x5F0 SWAP1 PUSH2 0x1E96 JUMP JUMPDEST PUSH1 0x1 PUSH1 0x1 PUSH1 0xA0 SHL SUB DUP2 AND PUSH2 0x1378 JUMPI PUSH1 0x40 MLOAD PUSH3 0x461BCD PUSH1 0xE5 SHL DUP2 MSTORE PUSH1 0x20 PUSH1 0x4 DUP3 ADD MSTORE PUSH1 0xF PUSH1 0x24 DUP3 ADD MSTORE PUSH15 0x496E76616C69642061646472657373 PUSH1 0x88 SHL PUSH1 0x44 DUP3 ADD MSTORE PUSH1 0x64 ADD PUSH2 0x5F0 JUMP JUMPDEST PUSH1 0x6 DUP1 SLOAD PUSH1 0x1 PUSH1 0x1 PUSH1 0xA0 SHL SUB DUP4 DUP2 AND PUSH1 0x1 PUSH1 0x1 PUSH1 0xA0 SHL SUB NOT DUP4 AND DUP2 OR SWAP1 SWAP4 SSTORE PUSH1 0x40 DUP1 MLOAD SWAP2 SWAP1 SWAP3 AND DUP1 DUP3 MSTORE PUSH1 0x20 DUP3 ADD SWAP4 SWAP1 SWAP4 MSTORE PUSH32 0xDEAFB3CC563347555625B5863AC500302D91DE2E5C80E5C57EF842AF645A2478 SWAP2 ADD PUSH1 0x40 MLOAD DUP1 SWAP2 SUB SWAP1 LOG1 POP POP JUMP JUMPDEST PUSH1 0x5 SLOAD PUSH1 0x1 PUSH1 0x1 PUSH1 0xA0 SHL SUB AND CALLER EQ PUSH2 0x1403 JUMPI PUSH1 0x40 MLOAD PUSH3 0x461BCD PUSH1 0xE5 SHL DUP2 MSTORE PUSH1 0x4 ADD PUSH2 0x5F0 SWAP1 PUSH2 0x1E96 JUMP JUMPDEST SELFBALANCE DUP1 PUSH2 0x143B JUMPI PUSH1 0x40 MLOAD PUSH3 0x461BCD PUSH1 0xE5 SHL DUP2 MSTORE PUSH1 0x20 PUSH1 0x4 DUP3 ADD MSTORE PUSH1 0x7 PUSH1 0x24 DUP3 ADD MSTORE PUSH7 0x4E6F2066656573 PUSH1 0xC8 SHL PUSH1 0x44 DUP3 ADD MSTORE PUSH1 0x64 ADD PUSH2 0x5F0 JUMP JUMPDEST PUSH1 0x5 SLOAD PUSH1 0x40 MLOAD PUSH1 0x0 SWAP2 PUSH1 0x1 PUSH1 0x1 PUSH1 0xA0 SHL SUB AND SWAP1 DUP4 SWAP1 DUP4 DUP2 DUP2 DUP2 DUP6 DUP8 GAS CALL SWAP3 POP POP POP RETURNDATASIZE DUP1 PUSH1 0x0 DUP2 EQ PUSH2 0x1488 JUMPI PUSH1 0x40 MLOAD SWAP2 POP PUSH1 0x1F NOT PUSH1 0x3F RETURNDATASIZE ADD AND DUP3 ADD PUSH1 0x40 MSTORE RETURNDATASIZE DUP3 MSTORE RETURNDATASIZE PUSH1 0x0 PUSH1 0x20 DUP5 ADD RETURNDATACOPY PUSH2 0x148D JUMP JUMPDEST PUSH1 0x60 SWAP2 POP JUMPDEST POP POP SWAP1 POP DUP1 PUSH2 0x14D0 JUMPI PUSH1 0x40 MLOAD PUSH3 0x461BCD PUSH1 0xE5 SHL DUP2 MSTORE PUSH1 0x20 PUSH1 0x4 DUP3 ADD MSTORE PUSH1 0xF PUSH1 0x24 DUP3 ADD MSTORE PUSH15 0x151C985B9CD9995C8819985A5B1959 PUSH1 0x8A SHL PUSH1 0x44 DUP3 ADD MSTORE PUSH1 0x64 ADD PUSH2 0x5F0 JUMP JUMPDEST POP POP JUMP JUMPDEST PUSH1 0x60 PUSH1 0x1 PUSH1 0x0 DUP4 DUP2 MSTORE PUSH1 0x20 ADD SWAP1 DUP2 MSTORE PUSH1 0x20 ADD PUSH1 0x0 KECCAK256 DUP1 SLOAD DUP1 PUSH1 0x20 MUL PUSH1 0x20 ADD PUSH1 0x40 MLOAD SWAP1 DUP2 ADD PUSH1 0x40 MSTORE DUP1 SWAP3 SWAP2 SWAP1 DUP2 DUP2 MSTORE PUSH1 0x20 ADD PUSH1 0x0 SWAP1 JUMPDEST DUP3 DUP3 LT ISZERO PUSH2 0x157F JUMPI PUSH1 0x0 DUP5 DUP2 MSTORE PUSH1 0x20 SWAP1 DUP2 SWAP1 KECCAK256 PUSH1 0x40 DUP1 MLOAD PUSH1 0xC0 DUP2 ADD DUP3 MSTORE PUSH1 0x6 DUP7 MUL SWAP1 SWAP3 ADD DUP1 SLOAD PUSH1 0x1 PUSH1 0x1 PUSH1 0xA0 SHL SUB AND DUP4 MSTORE PUSH1 0x1 DUP1 DUP3 ADD SLOAD DUP5 DUP7 ADD MSTORE PUSH1 0x2 DUP3 ADD SLOAD SWAP3 DUP5 ADD SWAP3 SWAP1 SWAP3 MSTORE PUSH1 0x3 DUP2 ADD SLOAD PUSH1 0x60 DUP5 ADD MSTORE PUSH1 0x4 DUP2 ADD SLOAD PUSH1 0x80 DUP5 ADD MSTORE PUSH1 0x5 ADD SLOAD PUSH1 0xFF AND ISZERO ISZERO PUSH1 0xA0 DUP4 ADD MSTORE SWAP1 DUP4 MSTORE SWAP1 SWAP3 ADD SWAP2 ADD PUSH2 0x1509 JUMP JUMPDEST POP POP POP POP SWAP1 POP SWAP2 SWAP1 POP JUMP JUMPDEST PUSH1 0x5 SLOAD PUSH1 0x1 PUSH1 0x1 PUSH1 0xA0 SHL SUB AND CALLER EQ PUSH2 0x15B4 JUMPI PUSH1 0x40 MLOAD PUSH3 0x461BCD PUSH1 0xE5 SHL DUP2 MSTORE PUSH1 0x4 ADD PUSH2 0x5F0 SWAP1 PUSH2 0x1E96 JUMP JUMPDEST PUSH1 0x1 PUSH1 0x1 PUSH1 0xA0 SHL SUB DUP2 AND PUSH2 0x15F9 JUMPI PUSH1 0x40 MLOAD PUSH3 0x461BCD PUSH1 0xE5 SHL DUP2 MSTORE PUSH1 0x20 PUSH1 0x4 DUP3 ADD MSTORE PUSH1 0xC PUSH1 0x24 DUP3 ADD MSTORE PUSH12 0x5A65726F2061646472657373 PUSH1 0xA0 SHL PUSH1 0x44 DUP3 ADD MSTORE PUSH1 0x64 ADD PUSH2 0x5F0 JUMP JUMPDEST PUSH1 0x5 DUP1 SLOAD PUSH1 0x1 PUSH1 0x1 PUSH1 0xA0 SHL SUB NOT AND PUSH1 0x1 PUSH1 0x1 PUSH1 0xA0 SHL SUB SWAP3 SWAP1 SWAP3 AND SWAP2 SWAP1 SWAP2 OR SWAP1 SSTORE JUMP JUMPDEST PUSH1 0x0 DUP2 DUP2 MSTORE PUSH1 0x20 DUP2 SWAP1 MSTORE PUSH1 0x40 SWAP1 KECCAK256 SLOAD DUP2 SWAP1 PUSH1 0x1 PUSH1 0x1 PUSH1 0xA0 SHL SUB AND CALLER EQ PUSH2 0x1653 JUMPI PUSH1 0x40 MLOAD PUSH3 0x461BCD PUSH1 0xE5 SHL DUP2 MSTORE PUSH1 0x4 ADD PUSH2 0x5F0 SWAP1 PUSH2 0x1BA3 JUMP JUMPDEST PUSH1 0x0 DUP3 DUP2 MSTORE PUSH1 0x20 DUP2 SWAP1 MSTORE PUSH1 0x40 SWAP1 KECCAK256 PUSH1 0x6 ADD SLOAD PUSH2 0x16A4 JUMPI PUSH1 0x40 MLOAD PUSH3 0x461BCD PUSH1 0xE5 SHL DUP2 MSTORE PUSH1 0x20 PUSH1 0x4 DUP3 ADD MSTORE PUSH1 0x10 PUSH1 0x24 DUP3 ADD MSTORE PUSH16 0x576173206E6576657220616374697665 PUSH1 0x80 SHL PUSH1 0x44 DUP3 ADD MSTORE PUSH1 0x64 ADD PUSH2 0x5F0 JUMP JUMPDEST PUSH1 0x0 DUP3 DUP2 MSTORE PUSH1 0x20 DUP2 SWAP1 MSTORE PUSH1 0x40 DUP1 DUP3 KECCAK256 PUSH1 0x9 ADD DUP1 SLOAD PUSH1 0xFF NOT AND PUSH1 0x1 OR SWAP1 SSTORE MLOAD DUP4 SWAP2 PUSH32 0x7CCE21C1F4552995DCCACE889E9AD45FEBF59C654D3FD1D7AB0457FA1439AA2C SWAP2 LOG2 POP POP JUMP JUMPDEST DUP3 DUP1 SLOAD DUP3 DUP3 SSTORE SWAP1 PUSH1 0x0 MSTORE PUSH1 0x20 PUSH1 0x0 KECCAK256 SWAP1 DUP2 ADD SWAP3 DUP3 ISZERO PUSH2 0x1731 JUMPI SWAP2 PUSH1 0x20 MUL DUP3 ADD JUMPDEST DUP3 DUP2 GT ISZERO PUSH2 0x1731 JUMPI DUP3 MLOAD DUP3 SWAP1 PUSH2 0x1721 SWAP1 DUP3 PUSH2 0x1DA7 JUMP JUMPDEST POP SWAP2 PUSH1 0x20 ADD SWAP2 SWAP1 PUSH1 0x1 ADD SWAP1 PUSH2 0x170B JUMP JUMPDEST POP PUSH2 0x173D SWAP3 SWAP2 POP PUSH2 0x1741 JUMP JUMPDEST POP SWAP1 JUMP JUMPDEST DUP1 DUP3 GT ISZERO PUSH2 0x173D JUMPI PUSH1 0x0 PUSH2 0x1755 DUP3 DUP3 PUSH2 0x175E JUMP JUMPDEST POP PUSH1 0x1 ADD PUSH2 0x1741 JUMP JUMPDEST POP DUP1 SLOAD PUSH2 0x176A SWAP1 PUSH2 0x1C18 JUMP JUMPDEST PUSH1 0x0 DUP3 SSTORE DUP1 PUSH1 0x1F LT PUSH2 0x177A JUMPI POP POP JUMP JUMPDEST PUSH1 0x1F ADD PUSH1 0x20 SWAP1 DIV SWAP1 PUSH1 0x0 MSTORE PUSH1 0x20 PUSH1 0x0 KECCAK256 SWAP1 DUP2 ADD SWAP1 PUSH2 0x1798 SWAP2 SWAP1 PUSH2 0x179B JUMP JUMPDEST POP JUMP JUMPDEST JUMPDEST DUP1 DUP3 GT ISZERO PUSH2 0x173D JUMPI PUSH1 0x0 DUP2 SSTORE PUSH1 0x1 ADD PUSH2 0x179C JUMP JUMPDEST PUSH1 0x0 DUP1 PUSH1 0x40 DUP4 DUP6 SUB SLT ISZERO PUSH2 0x17C3 JUMPI PUSH1 0x0 DUP1 REVERT JUMPDEST POP POP DUP1 CALLDATALOAD SWAP3 PUSH1 0x20 SWAP1 SWAP2 ADD CALLDATALOAD SWAP2 POP JUMP JUMPDEST PUSH1 0x20 DUP1 DUP3 MSTORE DUP3 MLOAD DUP3 DUP3 ADD DUP2 SWAP1 MSTORE PUSH1 0x0 SWAP2 SWAP1 DUP5 DUP3 ADD SWAP1 PUSH1 0x40 DUP6 ADD SWAP1 DUP5 JUMPDEST DUP2 DUP2 LT ISZERO PUSH2 0x180A JUMPI DUP4 MLOAD DUP4 MSTORE SWAP3 DUP5 ADD SWAP3 SWAP2 DUP5 ADD SWAP2 PUSH1 0x1 ADD PUSH2 0x17EE JUMP JUMPDEST POP SWAP1 SWAP7 SWAP6 POP POP POP POP POP POP JUMP JUMPDEST PUSH1 0x0 PUSH1 0x20 DUP3 DUP5 SUB SLT ISZERO PUSH2 0x1828 JUMPI PUSH1 0x0 DUP1 REVERT JUMPDEST POP CALLDATALOAD SWAP2 SWAP1 POP JUMP JUMPDEST PUSH1 0x0 DUP1 PUSH1 0x40 DUP4 DUP6 SUB SLT ISZERO PUSH2 0x1842 JUMPI PUSH1 0x0 DUP1 REVERT JUMPDEST DUP3 CALLDATALOAD SWAP2 POP PUSH1 0x20 DUP4 ADD CALLDATALOAD PUSH1 0xFF DUP2 AND DUP2 EQ PUSH2 0x185A JUMPI PUSH1 0x0 DUP1 REVERT JUMPDEST DUP1 SWAP2 POP POP SWAP3 POP SWAP3 SWAP1 POP JUMP JUMPDEST PUSH1 0x0 DUP2 MLOAD DUP1 DUP5 MSTORE PUSH1 0x0 JUMPDEST DUP2 DUP2 LT ISZERO PUSH2 0x188B JUMPI PUSH1 0x20 DUP2 DUP6 ADD DUP2 ADD MLOAD DUP7 DUP4 ADD DUP3 ADD MSTORE ADD PUSH2 0x186F JUMP JUMPDEST POP PUSH1 0x0 PUSH1 0x20 DUP3 DUP7 ADD ADD MSTORE PUSH1 0x20 PUSH1 0x1F NOT PUSH1 0x1F DUP4 ADD AND DUP6 ADD ADD SWAP2 POP POP SWAP3 SWAP2 POP POP JUMP JUMPDEST PUSH1 0x1 PUSH1 0x1 PUSH1 0xA0 SHL SUB DUP11 AND DUP2 MSTORE PUSH2 0x120 PUSH1 0x20 DUP3 ADD DUP2 SWAP1 MSTORE PUSH1 0x0 SWAP1 PUSH2 0x18D0 DUP4 DUP3 ADD DUP13 PUSH2 0x1865 JUMP JUMPDEST SWAP1 POP DUP3 DUP2 SUB PUSH1 0x40 DUP5 ADD MSTORE PUSH2 0x18E4 DUP2 DUP12 PUSH2 0x1865 JUMP JUMPDEST PUSH1 0x60 DUP5 ADD SWAP10 SWAP1 SWAP10 MSTORE POP POP PUSH1 0x80 DUP2 ADD SWAP6 SWAP1 SWAP6 MSTORE PUSH1 0xA0 DUP6 ADD SWAP4 SWAP1 SWAP4 MSTORE PUSH1 0xC0 DUP5 ADD SWAP2 SWAP1 SWAP2 MSTORE PUSH1 0xE0 DUP4 ADD MSTORE ISZERO ISZERO PUSH2 0x100 SWAP1 SWAP2 ADD MSTORE SWAP4 SWAP3 POP POP POP JUMP JUMPDEST DUP1 CALLDATALOAD PUSH1 0x1 PUSH1 0x1 PUSH1 0xA0 SHL SUB DUP2 AND DUP2 EQ PUSH2 0x1932 JUMPI PUSH1 0x0 DUP1 REVERT JUMPDEST SWAP2 SWAP1 POP JUMP JUMPDEST PUSH1 0x0 PUSH1 0x20 DUP3 DUP5 SUB SLT ISZERO PUSH2 0x1949 JUMPI PUSH1 0x0 DUP1 REVERT JUMPDEST PUSH2 0xF5C DUP3 PUSH2 0x191B JUMP JUMPDEST PUSH1 0x0 DUP1 PUSH1 0x40 DUP4 DUP6 SUB SLT ISZERO PUSH2 0x1965 JUMPI PUSH1 0x0 DUP1 REVERT JUMPDEST PUSH2 0x196E DUP4 PUSH2 0x191B JUMP JUMPDEST SWAP5 PUSH1 0x20 SWAP4 SWAP1 SWAP4 ADD CALLDATALOAD SWAP4 POP POP POP JUMP JUMPDEST PUSH1 0x0 DUP1 PUSH1 0x40 DUP4 DUP6 SUB SLT ISZERO PUSH2 0x198F JUMPI PUSH1 0x0 DUP1 REVERT JUMPDEST DUP3 CALLDATALOAD SWAP2 POP PUSH2 0x199F PUSH1 0x20 DUP5 ADD PUSH2 0x191B JUMP JUMPDEST SWAP1 POP SWAP3 POP SWAP3 SWAP1 POP JUMP JUMPDEST PUSH1 0x0 DUP1 DUP4 PUSH1 0x1F DUP5 ADD SLT PUSH2 0x19BA JUMPI PUSH1 0x0 DUP1 REVERT JUMPDEST POP DUP2 CALLDATALOAD PUSH8 0xFFFFFFFFFFFFFFFF DUP2 GT ISZERO PUSH2 0x19D2 JUMPI PUSH1 0x0 DUP1 REVERT JUMPDEST PUSH1 0x20 DUP4 ADD SWAP2 POP DUP4 PUSH1 0x20 DUP3 DUP6 ADD ADD GT ISZERO PUSH2 0x19EA JUMPI PUSH1 0x0 DUP1 REVERT JUMPDEST SWAP3 POP SWAP3 SWAP1 POP JUMP JUMPDEST PUSH1 0x0 DUP1 PUSH1 0x0 DUP1 PUSH1 0x0 DUP1 PUSH1 0x0 PUSH1 0x80 DUP9 DUP11 SUB SLT ISZERO PUSH2 0x1A0C JUMPI PUSH1 0x0 DUP1 REVERT JUMPDEST DUP8 CALLDATALOAD PUSH8 0xFFFFFFFFFFFFFFFF DUP1 DUP3 GT ISZERO PUSH2 0x1A24 JUMPI PUSH1 0x0 DUP1 REVERT JUMPDEST PUSH2 0x1A30 DUP12 DUP4 DUP13 ADD PUSH2 0x19A8 JUMP JUMPDEST SWAP1 SWAP10 POP SWAP8 POP PUSH1 0x20 DUP11 ADD CALLDATALOAD SWAP2 POP DUP1 DUP3 GT ISZERO PUSH2 0x1A49 JUMPI PUSH1 0x0 DUP1 REVERT JUMPDEST PUSH2 0x1A55 DUP12 DUP4 DUP13 ADD PUSH2 0x19A8 JUMP JUMPDEST SWAP1 SWAP8 POP SWAP6 POP PUSH1 0x40 DUP11 ADD CALLDATALOAD SWAP2 POP DUP1 DUP3 GT ISZERO PUSH2 0x1A6E JUMPI PUSH1 0x0 DUP1 REVERT JUMPDEST DUP2 DUP11 ADD SWAP2 POP DUP11 PUSH1 0x1F DUP4 ADD SLT PUSH2 0x1A82 JUMPI PUSH1 0x0 DUP1 REVERT JUMPDEST DUP2 CALLDATALOAD DUP2 DUP2 GT ISZERO PUSH2 0x1A91 JUMPI PUSH1 0x0 DUP1 REVERT JUMPDEST DUP12 PUSH1 0x20 DUP3 PUSH1 0x5 SHL DUP6 ADD ADD GT ISZERO PUSH2 0x1AA6 JUMPI PUSH1 0x0 DUP1 REVERT JUMPDEST PUSH1 0x20 DUP4 ADD SWAP6 POP DUP1 SWAP5 POP POP POP POP PUSH1 0x60 DUP9 ADD CALLDATALOAD SWAP1 POP SWAP3 SWAP6 SWAP9 SWAP2 SWAP5 SWAP8 POP SWAP3 SWAP6 POP JUMP JUMPDEST PUSH1 0x20 DUP1 DUP3 MSTORE DUP3 MLOAD DUP3 DUP3 ADD DUP2 SWAP1 MSTORE PUSH1 0x0 SWAP2 SWAP1 PUSH1 0x40 SWAP1 DUP2 DUP6 ADD SWAP1 DUP7 DUP5 ADD DUP6 JUMPDEST DUP3 DUP2 LT ISZERO PUSH2 0x1B3B JUMPI DUP2 MLOAD DUP1 MLOAD PUSH1 0x1 PUSH1 0x1 PUSH1 0xA0 SHL SUB AND DUP6 MSTORE DUP7 DUP2 ADD MLOAD DUP8 DUP7 ADD MSTORE DUP6 DUP2 ADD MLOAD DUP7 DUP7 ADD MSTORE PUSH1 0x60 DUP1 DUP3 ADD MLOAD SWAP1 DUP7 ADD MSTORE PUSH1 0x80 DUP1 DUP3 ADD MLOAD SWAP1 DUP7 ADD MSTORE PUSH1 0xA0 SWAP1 DUP2 ADD MLOAD ISZERO ISZERO SWAP1 DUP6 ADD MSTORE PUSH1 0xC0 SWAP1 SWAP4 ADD SWAP3 SWAP1 DUP6 ADD SWAP1 PUSH1 0x1 ADD PUSH2 0x1AE2 JUMP JUMPDEST POP SWAP2 SWAP8 SWAP7 POP POP POP POP POP POP POP JUMP JUMPDEST PUSH4 0x4E487B71 PUSH1 0xE0 SHL PUSH1 0x0 MSTORE PUSH1 0x11 PUSH1 0x4 MSTORE PUSH1 0x24 PUSH1 0x0 REVERT JUMPDEST PUSH1 0x0 PUSH1 0x1 DUP3 ADD PUSH2 0x1B70 JUMPI PUSH2 0x1B70 PUSH2 0x1B48 JUMP JUMPDEST POP PUSH1 0x1 ADD SWAP1 JUMP JUMPDEST PUSH4 0x4E487B71 PUSH1 0xE0 SHL PUSH1 0x0 MSTORE PUSH1 0x41 PUSH1 0x4 MSTORE PUSH1 0x24 PUSH1 0x0 REVERT JUMPDEST PUSH4 0x4E487B71 PUSH1 0xE0 SHL PUSH1 0x0 MSTORE PUSH1 0x32 PUSH1 0x4 MSTORE PUSH1 0x24 PUSH1 0x0 REVERT JUMPDEST PUSH1 0x20 DUP1 DUP3 MSTORE PUSH1 0xF SWAP1 DUP3 ADD MSTORE PUSH15 0x2737BA1030B3B2B73A1037BBB732B9 PUSH1 0x89 SHL PUSH1 0x40 DUP3 ADD MSTORE PUSH1 0x60 ADD SWAP1 JUMP JUMPDEST DUP1 DUP3 MUL DUP2 ISZERO DUP3 DUP3 DIV DUP5 EQ OR PUSH2 0x5B2 JUMPI PUSH2 0x5B2 PUSH2 0x1B48 JUMP JUMPDEST DUP1 DUP3 ADD DUP1 DUP3 GT ISZERO PUSH2 0x5B2 JUMPI PUSH2 0x5B2 PUSH2 0x1B48 JUMP JUMPDEST PUSH1 0x0 DUP3 PUSH2 0x1C13 JUMPI PUSH4 0x4E487B71 PUSH1 0xE0 SHL PUSH1 0x0 MSTORE PUSH1 0x12 PUSH1 0x4 MSTORE PUSH1 0x24 PUSH1 0x0 REVERT JUMPDEST POP DIV SWAP1 JUMP JUMPDEST PUSH1 0x1 DUP2 DUP2 SHR SWAP1 DUP3 AND DUP1 PUSH2 0x1C2C JUMPI PUSH1 0x7F DUP3 AND SWAP2 POP JUMPDEST PUSH1 0x20 DUP3 LT DUP2 SUB PUSH2 0x1C4C JUMPI PUSH4 0x4E487B71 PUSH1 0xE0 SHL PUSH1 0x0 MSTORE PUSH1 0x22 PUSH1 0x4 MSTORE PUSH1 0x24 PUSH1 0x0 REVERT JUMPDEST POP SWAP2 SWAP1 POP JUMP JUMPDEST PUSH1 0x40 MLOAD PUSH1 0x1F DUP3 ADD PUSH1 0x1F NOT AND DUP2 ADD PUSH8 0xFFFFFFFFFFFFFFFF DUP2 GT DUP3 DUP3 LT OR ISZERO PUSH2 0x1C7B JUMPI PUSH2 0x1C7B PUSH2 0x1B77 JUMP JUMPDEST PUSH1 0x40 MSTORE SWAP2 SWAP1 POP JUMP JUMPDEST PUSH1 0x0 PUSH8 0xFFFFFFFFFFFFFFFF DUP1 DUP5 GT ISZERO PUSH2 0x1C9E JUMPI PUSH2 0x1C9E PUSH2 0x1B77 JUMP JUMPDEST DUP4 PUSH1 0x5 SHL PUSH1 0x20 PUSH2 0x1CAF DUP2 DUP4 ADD PUSH2 0x1C52 JUMP JUMPDEST DUP7 DUP2 MSTORE SWAP2 DUP6 ADD SWAP2 DUP2 DUP2 ADD SWAP1 CALLDATASIZE DUP5 GT ISZERO PUSH2 0x1CC7 JUMPI PUSH1 0x0 DUP1 REVERT JUMPDEST DUP7 JUMPDEST DUP5 DUP2 LT ISZERO PUSH2 0x1D4C JUMPI DUP1 CALLDATALOAD DUP7 DUP2 GT ISZERO PUSH2 0x1CE1 JUMPI PUSH1 0x0 DUP1 DUP2 REVERT JUMPDEST DUP9 ADD PUSH1 0x1F CALLDATASIZE DUP2 DUP4 ADD SLT PUSH2 0x1CF4 JUMPI PUSH1 0x0 DUP1 DUP2 REVERT JUMPDEST DUP2 CALLDATALOAD DUP9 DUP2 GT ISZERO PUSH2 0x1D06 JUMPI PUSH2 0x1D06 PUSH2 0x1B77 JUMP JUMPDEST PUSH2 0x1D17 DUP2 DUP4 ADD PUSH1 0x1F NOT AND DUP9 ADD PUSH2 0x1C52 JUMP JUMPDEST SWAP2 POP DUP1 DUP3 MSTORE CALLDATASIZE DUP8 DUP3 DUP6 ADD ADD GT ISZERO PUSH2 0x1D2E JUMPI PUSH1 0x0 DUP1 DUP2 REVERT JUMPDEST DUP1 DUP8 DUP5 ADD DUP9 DUP5 ADD CALLDATACOPY PUSH1 0x0 SWAP1 DUP3 ADD DUP8 ADD MSTORE DUP5 MSTORE POP SWAP2 DUP4 ADD SWAP2 DUP4 ADD PUSH2 0x1CC9 JUMP JUMPDEST POP SWAP8 SWAP7 POP POP POP POP POP POP POP JUMP JUMPDEST PUSH1 0x1F DUP3 GT ISZERO PUSH2 0x1DA2 JUMPI PUSH1 0x0 DUP2 DUP2 MSTORE PUSH1 0x20 DUP2 KECCAK256 PUSH1 0x1F DUP6 ADD PUSH1 0x5 SHR DUP2 ADD PUSH1 0x20 DUP7 LT ISZERO PUSH2 0x1D7F JUMPI POP DUP1 JUMPDEST PUSH1 0x1F DUP6 ADD PUSH1 0x5 SHR DUP3 ADD SWAP2 POP JUMPDEST DUP2 DUP2 LT ISZERO PUSH2 0x1D9E JUMPI DUP3 DUP2 SSTORE PUSH1 0x1 ADD PUSH2 0x1D8B JUMP JUMPDEST POP POP POP JUMPDEST POP POP POP JUMP JUMPDEST DUP2 MLOAD PUSH8 0xFFFFFFFFFFFFFFFF DUP2 GT ISZERO PUSH2 0x1DC1 JUMPI PUSH2 0x1DC1 PUSH2 0x1B77 JUMP JUMPDEST PUSH2 0x1DD5 DUP2 PUSH2 0x1DCF DUP5 SLOAD PUSH2 0x1C18 JUMP JUMPDEST DUP5 PUSH2 0x1D58 JUMP JUMPDEST PUSH1 0x20 DUP1 PUSH1 0x1F DUP4 GT PUSH1 0x1 DUP2 EQ PUSH2 0x1E0A JUMPI PUSH1 0x0 DUP5 ISZERO PUSH2 0x1DF2 JUMPI POP DUP6 DUP4 ADD MLOAD JUMPDEST PUSH1 0x0 NOT PUSH1 0x3 DUP7 SWAP1 SHL SHR NOT AND PUSH1 0x1 DUP6 SWAP1 SHL OR DUP6 SSTORE PUSH2 0x1D9E JUMP JUMPDEST PUSH1 0x0 DUP6 DUP2 MSTORE PUSH1 0x20 DUP2 KECCAK256 PUSH1 0x1F NOT DUP7 AND SWAP2 JUMPDEST DUP3 DUP2 LT ISZERO PUSH2 0x1E39 JUMPI DUP9 DUP7 ADD MLOAD DUP3 SSTORE SWAP5 DUP5 ADD SWAP5 PUSH1 0x1 SWAP1 SWAP2 ADD SWAP1 DUP5 ADD PUSH2 0x1E1A JUMP JUMPDEST POP DUP6 DUP3 LT ISZERO PUSH2 0x1E57 JUMPI DUP8 DUP6 ADD MLOAD PUSH1 0x0 NOT PUSH1 0x3 DUP9 SWAP1 SHL PUSH1 0xF8 AND SHR NOT AND DUP2 SSTORE JUMPDEST POP POP POP POP POP PUSH1 0x1 SWAP1 DUP2 SHL ADD SWAP1 SSTORE POP JUMP JUMPDEST PUSH1 0x20 DUP2 MSTORE DUP2 PUSH1 0x20 DUP3 ADD MSTORE DUP2 DUP4 PUSH1 0x40 DUP4 ADD CALLDATACOPY PUSH1 0x0 DUP2 DUP4 ADD PUSH1 0x40 SWAP1 DUP2 ADD SWAP2 SWAP1 SWAP2 MSTORE PUSH1 0x1F SWAP1 SWAP3 ADD PUSH1 0x1F NOT AND ADD ADD SWAP2 SWAP1 POP JUMP JUMPDEST PUSH1 0x20 DUP1 DUP3 MSTORE PUSH1 0x9 SWAP1 DUP3 ADD MSTORE PUSH9 0x2737BA1037BBB732B9 PUSH1 0xB9 SHL PUSH1 0x40 DUP3 ADD MSTORE PUSH1 0x60 ADD SWAP1 JUMP INVALID LOG2 PUSH5 0x6970667358 0x22 SLT KECCAK256 RETURNDATACOPY INVALID 0xC4 0xED SSTORE 0xDE 0xBF 0xCD PUSH15 0x5FCCF9E8E64B259B28E5F8DB8049EB 0x4A SWAP13 PUSH11 0x2AF42F71A664736F6C6343 STOP ADDMOD EQ STOP CALLER "},"methodIdentifiers":{"agentCount()":"b7dc1284","agents(uint256)":"513856c8","calculateRentalCost(uint256,uint256)":"893e5544","deactivateAgent(uint256)":"11ba6b4a","getActiveAgents(uint256,uint256)":"07261960","getAgent(uint256)":"2de5aaf7","getRentals(uint256)":"d496498f","getUserAgents(address)":"3d46519d","hasRated(uint256,address)":"76454486","listAgent(string,string,string[],uint256)":"766f66d0","owner()":"8da5cb5b","rateAgent(uint256,uint8)":"22f825cc","reactivateAgent(uint256)":"fd610317","rentAgent(uint256,uint256)":"9a9e6bb5","rentals(uint256,uint256)":"4435c101","stakingPool()":"0c56ae3b","transferOwnership(address)":"f2fde38b","updatePrice(uint256,uint256)":"82367b2d","updateStakingPool(address)":"a99bc409","userAgents(address,uint256)":"51ca9ff9","withdrawPlatformFees()":"d0b7830b"}}}}}