{
  "_format": "hh-sol-artifact-1",
  "contractName": "AgentMarketplace",
  "sourceName": "contracts/AgentMarketplace.sol",
  "abi": [
    {
      "inputs": [
        {
          "internalType": "address",
          "name": "_treasury",
          "type": "address"
        }
      ],
      "stateMutability": "nonpayable",
      "type": "constructor"
    },
    {
      "anonymous": false,
      "inputs": [
        {
          "indexed": true,
          "internalType": "uint256",
          "name": "agentId",
          "type": "uint256"
        }
      ],
      "name": "AgentDeactivated",
      "type": "event"
    },
    {
      "anonymous": false,
      "inputs": [
        {
          "indexed": true,
          "internalType": "uint256",
          "name": "agentId",
          "type": "uint256"
        },
        {
          "indexed": true,
          "internalType": "address",
          "name": "owner",
          "type": "address"
        },
        {
          "indexed": false,
          "internalType": "string",
          "name": "name",
          "type": "string"
        },
        {
          "indexed": false,
          "internalType": "enum AgentMarketplace.AgentType",
          "name": "agentType",
          "type": "uint8"
        }
      ],
      "name": "AgentListed",
      "type": "event"
    },
    {
      "anonymous": false,
      "inputs": [
        {
          "indexed": true,
          "internalType": "uint256",
          "name": "agentId",
          "type": "uint256"
        },
        {
          "indexed": true,
          "internalType": "address",
          "name": "rater",
          "type": "address"
        },
        {
          "indexed": false,
          "internalType": "uint8",
          "name": "rating",
          "type": "uint8"
        }
      ],
      "name": "AgentRated",
      "type": "event"
    },
    {
      "anonymous": false,
      "inputs": [
        {
          "indexed": true,
          "internalType": "uint256",
          "name": "agentId",
          "type": "uint256"
        },
        {
          "indexed": true,
          "internalType": "address",
          "name": "renter",
          "type": "address"
        },
        {
          "indexed": false,
          "internalType": "uint256",
          "name": "duration",
          "type": "uint256"
        },
        {
          "indexed": false,
          "internalType": "uint256",
          "name": "totalPaid",
          "type": "uint256"
        }
      ],
      "name": "AgentRented",
      "type": "event"
    },
    {
      "anonymous": false,
      "inputs": [
        {
          "indexed": true,
          "internalType": "address",
          "name": "owner",
          "type": "address"
        },
        {
          "indexed": false,
          "internalType": "uint256",
          "name": "amount",
          "type": "uint256"
        }
      ],
      "name": "EarningsWithdrawn",
      "type": "event"
    },
    {
      "inputs": [],
      "name": "BPS_DENOMINATOR",
      "outputs": [
        {
          "internalType": "uint256",
          "name": "",
          "type": "uint256"
        }
      ],
      "stateMutability": "view",
      "type": "function"
    },
    {
      "inputs": [],
      "name": "PLATFORM_FEE_BPS",
      "outputs": [
        {
          "internalType": "uint256",
          "name": "",
          "type": "uint256"
        }
      ],
      "stateMutability": "view",
      "type": "function"
    },
    {
      "inputs": [],
      "name": "agentCount",
      "outputs": [
        {
          "internalType": "uint256",
          "name": "",
          "type": "uint256"
        }
      ],
      "stateMutability": "view",
      "type": "function"
    },
    {
      "inputs": [
        {
          "internalType": "uint256",
          "name": "",
          "type": "uint256"
        }
      ],
      "name": "agents",
      "outputs": [
        {
          "internalType": "address",
          "name": "owner",
          "type": "address"
        },
        {
          "internalType": "address",
          "name": "agentContract",
          "type": "address"
        },
        {
          "internalType": "string",
          "name": "name",
          "type": "string"
        },
        {
          "internalType": "string",
          "name": "description",
          "type": "string"
        },
        {
          "internalType": "uint256",
          "name": "pricePerHour",
          "type": "uint256"
        },
        {
          "internalType": "uint256",
          "name": "totalEarnings",
          "type": "uint256"
        },
        {
          "internalType": "uint256",
          "name": "totalRentals",
          "type": "uint256"
        },
        {
          "internalType": "uint256",
          "name": "rating",
          "type": "uint256"
        },
        {
          "internalType": "uint256",
          "name": "ratingCount",
          "type": "uint256"
        },
        {
          "internalType": "bool",
          "name": "isActive",
          "type": "bool"
        },
        {
          "internalType": "enum AgentMarketplace.AgentType",
          "name": "agentType",
          "type": "uint8"
        }
      ],
      "stateMutability": "view",
      "type": "function"
    },
    {
      "inputs": [
        {
          "internalType": "uint256",
          "name": "_agentId",
          "type": "uint256"
        },
        {
          "internalType": "uint256",
          "name": "_hours",
          "type": "uint256"
        }
      ],
      "name": "calculateRentalCost",
      "outputs": [
        {
          "internalType": "uint256",
          "name": "",
          "type": "uint256"
        }
      ],
      "stateMutability": "view",
      "type": "function"
    },
    {
      "inputs": [
        {
          "internalType": "uint256",
          "name": "_agentId",
          "type": "uint256"
        }
      ],
      "name": "deactivateAgent",
      "outputs": [],
      "stateMutability": "nonpayable",
      "type": "function"
    },
    {
      "inputs": [
        {
          "internalType": "uint256",
          "name": "_offset",
          "type": "uint256"
        },
        {
          "internalType": "uint256",
          "name": "_limit",
          "type": "uint256"
        }
      ],
      "name": "getActiveAgents",
      "outputs": [
        {
          "internalType": "uint256[]",
          "name": "",
          "type": "uint256[]"
        }
      ],
      "stateMutability": "view",
      "type": "function"
    },
    {
      "inputs": [
        {
          "internalType": "uint256",
          "name": "_agentId",
          "type": "uint256"
        }
      ],
      "name": "getAgent",
      "outputs": [
        {
          "internalType": "address",
          "name": "owner",
          "type": "address"
        },
        {
          "internalType": "address",
          "name": "agentContract",
          "type": "address"
        },
        {
          "internalType": "string",
          "name": "name",
          "type": "string"
        },
        {
          "internalType": "string",
          "name": "description",
          "type": "string"
        },
        {
          "internalType": "uint256",
          "name": "pricePerHour",
          "type": "uint256"
        },
        {
          "internalType": "uint256",
          "name": "totalEarnings",
          "type": "uint256"
        },
        {
          "internalType": "uint256",
          "name": "totalRentals",
          "type": "uint256"
        },
        {
          "internalType": "uint256",
          "name": "rating",
          "type": "uint256"
        },
        {
          "internalType": "uint256",
          "name": "ratingCount",
          "type": "uint256"
        },
        {
          "internalType": "bool",
          "name": "isActive",
          "type": "bool"
        },
        {
          "internalType": "enum AgentMarketplace.AgentType",
          "name": "agentType",
          "type": "uint8"
        }
      ],
      "stateMutability": "view",
      "type": "function"
    },
    {
      "inputs": [
        {
          "internalType": "uint256",
          "name": "_agentId",
          "type": "uint256"
        }
      ],
      "name": "getRentals",
      "outputs": [
        {
          "components": [
            {
              "internalType": "address",
              "name": "renter",
              "type": "address"
            },
            {
              "internalType": "uint256",
              "name": "agentId",
              "type": "uint256"
            },
            {
              "internalType": "uint256",
              "name": "startTime",
              "type": "uint256"
            },
            {
              "internalType": "uint256",
              "name": "endTime",
              "type": "uint256"
            },
            {
              "internalType": "uint256",
              "name": "totalPaid",
              "type": "uint256"
            },
            {
              "internalType": "bool",
              "name": "isActive",
              "type": "bool"
            }
          ],
          "internalType": "struct AgentMarketplace.Rental[]",
          "name": "",
          "type": "tuple[]"
        }
      ],
      "stateMutability": "view",
      "type": "function"
    },
    {
      "inputs": [
        {
          "internalType": "address",
          "name": "_user",
          "type": "address"
        }
      ],
      "name": "getUserAgents",
      "outputs": [
        {
          "internalType": "uint256[]",
          "name": "",
          "type": "uint256[]"
        }
      ],
      "stateMutability": "view",
      "type": "function"
    },
    {
      "inputs": [
        {
          "internalType": "uint256",
          "name": "",
          "type": "uint256"
        },
        {
          "internalType": "address",
          "name": "",
          "type": "address"
        }
      ],
      "name": "hasRated",
      "outputs": [
        {
          "internalType": "bool",
          "name": "",
          "type": "bool"
        }
      ],
      "stateMutability": "view",
      "type": "function"
    },
    {
      "inputs": [
        {
          "internalType": "address",
          "name": "_agentContract",
          "type": "address"
        },
        {
          "internalType": "string",
          "name": "_name",
          "type": "string"
        },
        {
          "internalType": "string",
          "name": "_description",
          "type": "string"
        },
        {
          "internalType": "string[]",
          "name": "_capabilities",
          "type": "string[]"
        },
        {
          "internalType": "uint256",
          "name": "_pricePerHour",
          "type": "uint256"
        },
        {
          "internalType": "enum AgentMarketplace.AgentType",
          "name": "_agentType",
          "type": "uint8"
        }
      ],
      "name": "listAgent",
      "outputs": [
        {
          "internalType": "uint256",
          "name": "",
          "type": "uint256"
        }
      ],
      "stateMutability": "nonpayable",
      "type": "function"
    },
    {
      "inputs": [],
      "name": "platformTreasury",
      "outputs": [
        {
          "internalType": "address",
          "name": "",
          "type": "address"
        }
      ],
      "stateMutability": "view",
      "type": "function"
    },
    {
      "inputs": [
        {
          "internalType": "uint256",
          "name": "_agentId",
          "type": "uint256"
        },
        {
          "internalType": "uint8",
          "name": "_rating",
          "type": "uint8"
        }
      ],
      "name": "rateAgent",
      "outputs": [],
      "stateMutability": "nonpayable",
      "type": "function"
    },
    {
      "inputs": [
        {
          "internalType": "uint256",
          "name": "_agentId",
          "type": "uint256"
        }
      ],
      "name": "reactivateAgent",
      "outputs": [],
      "stateMutability": "nonpayable",
      "type": "function"
    },
    {
      "inputs": [
        {
          "internalType": "uint256",
          "name": "_agentId",
          "type": "uint256"
        },
        {
          "internalType": "uint256",
          "name": "_hours",
          "type": "uint256"
        }
      ],
      "name": "rentAgent",
      "outputs": [],
      "stateMutability": "payable",
      "type": "function"
    },
    {
      "inputs": [
        {
          "internalType": "uint256",
          "name": "",
          "type": "uint256"
        },
        {
          "internalType": "uint256",
          "name": "",
          "type": "uint256"
        }
      ],
      "name": "rentals",
      "outputs": [
        {
          "internalType": "address",
          "name": "renter",
          "type": "address"
        },
        {
          "internalType": "uint256",
          "name": "agentId",
          "type": "uint256"
        },
        {
          "internalType": "uint256",
          "name": "startTime",
          "type": "uint256"
        },
        {
          "internalType": "uint256",
          "name": "endTime",
          "type": "uint256"
        },
        {
          "internalType": "uint256",
          "name": "totalPaid",
          "type": "uint256"
        },
        {
          "internalType": "bool",
          "name": "isActive",
          "type": "bool"
        }
      ],
      "stateMutability": "view",
      "type": "function"
    },
    {
      "inputs": [
        {
          "internalType": "address",
          "name": "",
          "type": "address"
        },
        {
          "internalType": "uint256",
          "name": "",
          "type": "uint256"
        }
      ],
      "name": "userAgents",
      "outputs": [
        {
          "internalType": "uint256",
          "name": "",
          "type": "uint256"
        }
      ],
      "stateMutability": "view",
      "type": "function"
    },
    {
      "inputs": [],
      "name": "withdrawEarnings",
      "outputs": [],
      "stateMutability": "nonpayable",
      "type": "function"
    }
  ],
  "bytecode": "0x608060405234801561001057600080fd5b5060405162001e8f38038062001e8f833981016040819052610031916100a3565b6001600160a01b03811661007e5760405162461bcd60e51b815260206004820152601060248201526f496e76616c696420747265617375727960801b604482015260640160405180910390fd5b600580546001600160a01b0319166001600160a01b03929092169190911790556100d3565b6000602082840312156100b557600080fd5b81516001600160a01b03811681146100cc57600080fd5b9392505050565b611dac80620000e36000396000f3fe6080604052600436106101145760003560e01c8063539aa77f116100a0578063b7dc128411610064578063b7dc128414610358578063d496498f1461036e578063e138818c1461039b578063e1a45218146103d3578063fd610317146103e957600080fd5b8063539aa77f146102af57806376454486146102c5578063893e5544146103105780639a9e6bb514610330578063b73c6ce91461034357600080fd5b80632de5aaf7116100e75780632de5aaf7146101bf5780633d46519d146101f65780634435c10114610216578063513856c81461026f57806351ca9ff91461028f57600080fd5b8063072619601461011957806311ba6b4a1461014f57806322f825cc1461017157806323598f5114610191575b600080fd5b34801561012557600080fd5b50610139610134366004611614565b610409565b6040516101469190611636565b60405180910390f35b34801561015b57600080fd5b5061016f61016a36600461167a565b610545565b005b34801561017d57600080fd5b5061016f61018c366004611693565b6105e8565b34801561019d57600080fd5b506101b16101ac36600461173d565b6107a0565b604051908152602001610146565b3480156101cb57600080fd5b506101df6101da36600461167a565b610af0565b6040516101469b9a999897969594939291906118af565b34801561020257600080fd5b50610139610211366004611939565b610ca6565b34801561022257600080fd5b50610236610231366004611614565b610d12565b604080516001600160a01b03909716875260208701959095529385019290925260608401526080830152151560a082015260c001610146565b34801561027b57600080fd5b506101df61028a36600461167a565b610d73565b34801561029b57600080fd5b506101b16102aa366004611954565b610eec565b3480156102bb57600080fd5b506101b16101f481565b3480156102d157600080fd5b506103006102e036600461197e565b600360209081526000928352604080842090915290825290205460ff1681565b6040519015158152602001610146565b34801561031c57600080fd5b506101b161032b366004611614565b610f1d565b61016f61033e366004611614565b610f41565b34801561034f57600080fd5b5061016f611247565b34801561036457600080fd5b506101b160045481565b34801561037a57600080fd5b5061038e61038936600461167a565b6113cf565b60405161014691906119aa565b3480156103a757600080fd5b506005546103bb906001600160a01b031681565b6040516001600160a01b039091168152602001610146565b3480156103df57600080fd5b506101b161271081565b3480156103f557600080fd5b5061016f61040436600461167a565b611485565b6060600060015b6004548111610453576000818152602081905260409020600a015460ff1615610441578161043d81611a43565b9250505b8061044b81611a43565b915050610410565b5060008382106104635783610465565b815b67ffffffffffffffff81111561047d5761047d611a5c565b6040519080825280602002602001820160405280156104a6578160200160208202803683370190505b50905060008060015b60045481111580156104c15750835183105b15610537576000818152602081905260409020600a015460ff161561052557878210156104fa57816104f281611a43565b925050610525565b80848461050681611a43565b95508151811061051857610518611a72565b6020026020010181815250505b8061052f81611a43565b9150506104af565b509193505050505b92915050565b60008181526020819052604090205481906001600160a01b031633146105a45760405162461bcd60e51b815260206004820152600f60248201526e2737ba1030b3b2b73a1037bbb732b960891b60448201526064015b60405180910390fd5b600082815260208190526040808220600a01805460ff191690555183917fc2fb7f8575ac3990e70361684edfc4d283931ea9a03dfa28766bf376a3934aa291a25050565b60018160ff1610158015610600575060058160ff1611155b6106395760405162461bcd60e51b815260206004820152600a602482015269526174696e6720312d3560b01b604482015260640161059b565b600082815260036020908152604080832033845290915290205460ff16156106935760405162461bcd60e51b815260206004820152600d60248201526c105b1c9958591e481c985d1959609a1b604482015260640161059b565b600082815260208190526040902060078101546106e35760405162461bcd60e51b815260206004820152600e60248201526d139bc81c995b9d185b1cc81e595d60921b604482015260640161059b565b60008381526003602090815260408083203384529091528120805460ff1916600117905561071560ff84166064611a88565b826009015483600801546107299190611a88565b6107339190611a9f565b600983018054919250600061074783611a43565b9091555050600982015461075b9082611ab2565b600883015560405160ff84168152339085907f03f89f4b64cbfddce65251a2c96abe43618693ae1de8bc6cb21193cc2dcd30359060200160405180910390a350505050565b60006001600160a01b038a166107f15760405162461bcd60e51b8152602060048201526016602482015275125b9d985b1a59081859d95b9d0818dbdb9d1c9858dd60521b604482015260640161059b565b600083116108325760405162461bcd60e51b815260206004820152600e60248201526d05072696365206d757374203e20360941b604482015260640161059b565b8761086f5760405162461bcd60e51b815260206004820152600d60248201526c13985b59481c995c5d5a5c9959609a1b604482015260640161059b565b6004805490600061087f83611a43565b919050555060006004549050604051806101800160405280336001600160a01b031681526020018c6001600160a01b031681526020018b8b8080601f016020809104026020016040519081016040528093929190818152602001838380828437600092019190915250505090825250604080516020601f8c018190048102820181019092528a815291810191908b908b90819084018382808284376000920191909152505050908252506020016109368789611b05565b81526020018581526020016000815260200160008152602001600081526020016000815260200160011515815260200184600181111561097857610978611877565b905260008281526020818152604091829020835181546001600160a01b03199081166001600160a01b03928316178355928501516001830180549094169116179091559082015160028201906109ce9082611c63565b50606082015160038201906109e39082611c63565b50608082015180516109ff91600484019160209091019061154f565b5060a0820151600582015560c0820151600682015560e082015160078201556101008083015160088301556101208301516009830155610140830151600a8301805491151560ff1983168117825561016086015193919261ff001990911661ffff199091161790836001811115610a7857610a78611877565b021790555050336000818152600260209081526040808320805460018101825590845291909220018490555190915082907ffb374f7f4338623133d4eb0dee97f4ee109fec7816bc56d1fc754eafd894af5f90610ada908e908e908990611d23565b60405180910390a39a9950505050505050505050565b60008181526020819052604081208054600182015460058301546006840154600785015460088601546009870154600a8801546002890180548b9a60609a8b9a8d9a8b9a8b9a8b9a8b9a8b9a8b9a98996001600160a01b0398891699979098169760038b0196959493929160ff8082169261010090920416908990610b7490611bda565b80601f0160208091040260200160405190810160405280929190818152602001828054610ba090611bda565b8015610bed5780601f10610bc257610100808354040283529160200191610bed565b820191906000526020600020905b815481529060010190602001808311610bd057829003601f168201915b50505050509850878054610c0090611bda565b80601f0160208091040260200160405190810160405280929190818152602001828054610c2c90611bda565b8015610c795780601f10610c4e57610100808354040283529160200191610c79565b820191906000526020600020905b815481529060010190602001808311610c5c57829003601f168201915b505050505097509b509b509b509b509b509b509b509b509b509b509b505091939597999b90929496989a50565b6001600160a01b038116600090815260026020908152604091829020805483518184028101840190945280845260609392830182828015610d0657602002820191906000526020600020905b815481526020019060010190808311610cf2575b50505050509050919050565b60016020528160005260406000208181548110610d2e57600080fd5b60009182526020909120600690910201805460018201546002830154600384015460048501546005909501546001600160a01b03909416965091945092909160ff1686565b6000602081905290815260409020805460018201546002830180546001600160a01b03938416949290931692610da890611bda565b80601f0160208091040260200160405190810160405280929190818152602001828054610dd490611bda565b8015610e215780601f10610df657610100808354040283529160200191610e21565b820191906000526020600020905b815481529060010190602001808311610e0457829003601f168201915b505050505090806003018054610e3690611bda565b80601f0160208091040260200160405190810160405280929190818152602001828054610e6290611bda565b8015610eaf5780601f10610e8457610100808354040283529160200191610eaf565b820191906000526020600020905b815481529060010190602001808311610e9257829003601f168201915b50505060058401546006850154600786015460088701546009880154600a9098015496979396929550909350919060ff808216916101009004168b565b60026020528160005260406000208181548110610f0857600080fd5b90600052602060002001600091509150505481565b600082815260208190526040812060050154610f3a908390611a88565b9392505050565b6000828152602081905260409020600a81015460ff16610f965760405162461bcd60e51b815260206004820152601060248201526f4167656e74206e6f742061637469766560801b604482015260640161059b565b60008211610fda5760405162461bcd60e51b815260206004820152601160248201527004475726174696f6e206d757374203e203607c1b604482015260640161059b565b818160050154610fea9190611a88565b3410156110305760405162461bcd60e51b8152602060048201526014602482015273125b9cdd59999a58da595b9d081c185e5b595b9d60621b604482015260640161059b565b60006127106110416101f434611a88565b61104b9190611ab2565b905060006110598234611d63565b90508083600601600082825461106f9190611a9f565b909155505060078301805490600061108683611a43565b9190505550600160008681526020019081526020016000206040518060c00160405280336001600160a01b0316815260200187815260200142815260200186610e106110d29190611a88565b6110dc9042611a9f565b8152346020808301919091526001604092830181905284548082018655600095865294829020845160069096020180546001600160a01b0319166001600160a01b0390961695909517855590830151908401558101516002830155606081015160038301556080810151600483015560a001516005909101805460ff19169115159190911790558115611204576005546040516000916001600160a01b03169084908381818185875af1925050503d80600081146111b6576040519150601f19603f3d011682016040523d82523d6000602084013e6111bb565b606091505b50509050806112025760405162461bcd60e51b8152602060048201526013602482015272119959481d1c985b9cd9995c8819985a5b1959606a1b604482015260640161059b565b505b60408051858152346020820152339187917f1bcea300e852eb62fe74ae629da22c0f2fe0e266683d6a61be7b3c1327f64036910160405180910390a35050505050565b336000908152600260205260408120815b81548110156112cc57600082828154811061127557611275611a72565b9060005260206000200154905060008082815260200190815260200160002060060154846112a39190611a9f565b6000918252602082905260408220600601919091559250806112c481611a43565b915050611258565b506000821161130b5760405162461bcd60e51b815260206004820152600b60248201526a4e6f206561726e696e677360a81b604482015260640161059b565b604051600090339084908381818185875af1925050503d806000811461134d576040519150601f19603f3d011682016040523d82523d6000602084013e611352565b606091505b50509050806113955760405162461bcd60e51b815260206004820152600f60248201526e151c985b9cd9995c8819985a5b1959608a1b604482015260640161059b565b60405183815233907f48dc35af7b45e2a81fffad55f6e2fafacdb1d3d0d50d24ebdc16324f5ba757f19060200160405180910390a2505050565b606060016000838152602001908152602001600020805480602002602001604051908101604052809291908181526020016000905b8282101561147a5760008481526020908190206040805160c0810182526006860290920180546001600160a01b031683526001808201548486015260028201549284019290925260038101546060840152600481015460808401526005015460ff16151560a08301529083529092019101611404565b505050509050919050565b60008181526020819052604090205481906001600160a01b031633146114df5760405162461bcd60e51b815260206004820152600f60248201526e2737ba1030b3b2b73a1037bbb732b960891b604482015260640161059b565b6000828152602081905260409020600701546115305760405162461bcd60e51b815260206004820152601060248201526f576173206e657665722061637469766560801b604482015260640161059b565b506000908152602081905260409020600a01805460ff19166001179055565b828054828255906000526020600020908101928215611595579160200282015b8281111561159557825182906115859082611c63565b509160200191906001019061156f565b506115a19291506115a5565b5090565b808211156115a15760006115b982826115c2565b506001016115a5565b5080546115ce90611bda565b6000825580601f106115de575050565b601f0160209004906000526020600020908101906115fc91906115ff565b50565b5b808211156115a15760008155600101611600565b6000806040838503121561162757600080fd5b50508035926020909101359150565b6020808252825182820181905260009190848201906040850190845b8181101561166e57835183529284019291840191600101611652565b50909695505050505050565b60006020828403121561168c57600080fd5b5035919050565b600080604083850312156116a657600080fd5b82359150602083013560ff811681146116be57600080fd5b809150509250929050565b80356001600160a01b03811681146116e057600080fd5b919050565b60008083601f8401126116f757600080fd5b50813567ffffffffffffffff81111561170f57600080fd5b60208301915083602082850101111561172757600080fd5b9250929050565b8035600281106116e057600080fd5b600080600080600080600080600060c08a8c03121561175b57600080fd5b6117648a6116c9565b985060208a013567ffffffffffffffff8082111561178157600080fd5b61178d8d838e016116e5565b909a50985060408c01359150808211156117a657600080fd5b6117b28d838e016116e5565b909850965060608c01359150808211156117cb57600080fd5b818c0191508c601f8301126117df57600080fd5b8135818111156117ee57600080fd5b8d60208260051b850101111561180357600080fd5b60208301965080955050505060808a0135915061182260a08b0161172e565b90509295985092959850929598565b6000815180845260005b818110156118575760208185018101518683018201520161183b565b506000602082860101526020601f19601f83011685010191505092915050565b634e487b7160e01b600052602160045260246000fd5b600281106118ab57634e487b7160e01b600052602160045260246000fd5b9052565b6001600160a01b038c811682528b166020820152610160604082018190526000906118dc8382018d611831565b905082810360608401526118f0818c611831565b9150508860808301528760a08301528660c08301528560e08301528461010083015283151561012083015261192961014083018461188d565b9c9b505050505050505050505050565b60006020828403121561194b57600080fd5b610f3a826116c9565b6000806040838503121561196757600080fd5b611970836116c9565b946020939093013593505050565b6000806040838503121561199157600080fd5b823591506119a1602084016116c9565b90509250929050565b602080825282518282018190526000919060409081850190868401855b82811015611a2057815180516001600160a01b0316855286810151878601528581015186860152606080820151908601526080808201519086015260a09081015115159085015260c090930192908501906001016119c7565b5091979650505050505050565b634e487b7160e01b600052601160045260246000fd5b600060018201611a5557611a55611a2d565b5060010190565b634e487b7160e01b600052604160045260246000fd5b634e487b7160e01b600052603260045260246000fd5b808202811582820484141761053f5761053f611a2d565b8082018082111561053f5761053f611a2d565b600082611acf57634e487b7160e01b600052601260045260246000fd5b500490565b604051601f8201601f1916810167ffffffffffffffff81118282101715611afd57611afd611a5c565b604052919050565b600067ffffffffffffffff80841115611b2057611b20611a5c565b8360051b6020611b31818301611ad4565b868152918501918181019036841115611b4957600080fd5b865b84811015611bce57803586811115611b635760008081fd5b8801601f3681830112611b765760008081fd5b813588811115611b8857611b88611a5c565b611b99818301601f19168801611ad4565b91508082523687828501011115611bb05760008081fd5b80878401888401376000908201870152845250918301918301611b4b565b50979650505050505050565b600181811c90821680611bee57607f821691505b602082108103611c0e57634e487b7160e01b600052602260045260246000fd5b50919050565b601f821115611c5e57600081815260208120601f850160051c81016020861015611c3b5750805b601f850160051c820191505b81811015611c5a57828155600101611c47565b5050505b505050565b815167ffffffffffffffff811115611c7d57611c7d611a5c565b611c9181611c8b8454611bda565b84611c14565b602080601f831160018114611cc65760008415611cae5750858301515b600019600386901b1c1916600185901b178555611c5a565b600085815260208120601f198616915b82811015611cf557888601518255948401946001909101908401611cd6565b5085821015611d135787850151600019600388901b60f8161c191681555b5050505050600190811b01905550565b604081528260408201528284606083013760006060848301015260006060601f19601f8601168301019050611d5b602083018461188d565b949350505050565b8181038181111561053f5761053f611a2d56fea2646970667358221220863d6c04c28b90bebc18c5e887f22d9ab846b906fb623092dcc0f734c267900964736f6c63430008140033",
  "linkReferences": {},
  "deployedLinkReferences": {}
}