{
  "_format": "hh-sol-artifact-1",
  "contractName": "RittyStakingPool",
  "sourceName": "contracts/RittyStakingPool.sol",
  "abi": [
    {
      "inputs": [
        {
          "internalType": "address",
          "name": "_marketplace",
          "type": "address"
        }
      ],
      "stateMutability": "nonpayable",
      "type": "constructor"
    },
    {
      "anonymous": false,
      "inputs": [
        {
          "indexed": false,
          "internalType": "uint256",
          "name": "stakerFee",
          "type": "uint256"
        },
        {
          "indexed": false,
          "internalType": "uint256",
          "name": "creatorFee",
          "type": "uint256"
        },
        {
          "indexed": false,
          "internalType": "uint256",
          "name": "platformFee",
          "type": "uint256"
        }
      ],
      "name": "FeesUpdated",
      "type": "event"
    },
    {
      "anonymous": false,
      "inputs": [
        {
          "indexed": true,
          "internalType": "uint256",
          "name": "agentId",
          "type": "uint256"
        }
      ],
      "name": "PoolCreated",
      "type": "event"
    },
    {
      "anonymous": false,
      "inputs": [
        {
          "indexed": true,
          "internalType": "uint256",
          "name": "agentId",
          "type": "uint256"
        },
        {
          "indexed": false,
          "internalType": "uint256",
          "name": "totalAmount",
          "type": "uint256"
        },
        {
          "indexed": false,
          "internalType": "uint256",
          "name": "stakerShare",
          "type": "uint256"
        },
        {
          "indexed": false,
          "internalType": "uint256",
          "name": "creatorShare",
          "type": "uint256"
        },
        {
          "indexed": false,
          "internalType": "uint256",
          "name": "platformShare",
          "type": "uint256"
        }
      ],
      "name": "RevenueDistributed",
      "type": "event"
    },
    {
      "anonymous": false,
      "inputs": [
        {
          "indexed": true,
          "internalType": "uint256",
          "name": "agentId",
          "type": "uint256"
        },
        {
          "indexed": true,
          "internalType": "address",
          "name": "staker",
          "type": "address"
        },
        {
          "indexed": false,
          "internalType": "uint256",
          "name": "amount",
          "type": "uint256"
        }
      ],
      "name": "RewardClaimed",
      "type": "event"
    },
    {
      "anonymous": false,
      "inputs": [
        {
          "indexed": true,
          "internalType": "uint256",
          "name": "agentId",
          "type": "uint256"
        },
        {
          "indexed": true,
          "internalType": "address",
          "name": "staker",
          "type": "address"
        },
        {
          "indexed": false,
          "internalType": "uint256",
          "name": "amount",
          "type": "uint256"
        }
      ],
      "name": "Staked",
      "type": "event"
    },
    {
      "anonymous": false,
      "inputs": [
        {
          "indexed": true,
          "internalType": "uint256",
          "name": "agentId",
          "type": "uint256"
        },
        {
          "indexed": true,
          "internalType": "address",
          "name": "staker",
          "type": "address"
        },
        {
          "indexed": false,
          "internalType": "uint256",
          "name": "amount",
          "type": "uint256"
        }
      ],
      "name": "Unstaked",
      "type": "event"
    },
    {
      "inputs": [],
      "name": "claimAllRewards",
      "outputs": [],
      "stateMutability": "nonpayable",
      "type": "function"
    },
    {
      "inputs": [
        {
          "internalType": "uint256",
          "name": "_agentId",
          "type": "uint256"
        }
      ],
      "name": "claimReward",
      "outputs": [],
      "stateMutability": "nonpayable",
      "type": "function"
    },
    {
      "inputs": [
        {
          "internalType": "uint256",
          "name": "_agentId",
          "type": "uint256"
        }
      ],
      "name": "createPool",
      "outputs": [],
      "stateMutability": "nonpayable",
      "type": "function"
    },
    {
      "inputs": [],
      "name": "creatorFeeBps",
      "outputs": [
        {
          "internalType": "uint256",
          "name": "",
          "type": "uint256"
        }
      ],
      "stateMutability": "view",
      "type": "function"
    },
    {
      "inputs": [
        {
          "internalType": "uint256",
          "name": "_agentId",
          "type": "uint256"
        }
      ],
      "name": "distributeRevenue",
      "outputs": [],
      "stateMutability": "payable",
      "type": "function"
    },
    {
      "inputs": [
        {
          "internalType": "uint256",
          "name": "_agentId",
          "type": "uint256"
        }
      ],
      "name": "getAPY",
      "outputs": [
        {
          "internalType": "uint256",
          "name": "",
          "type": "uint256"
        }
      ],
      "stateMutability": "view",
      "type": "function"
    },
    {
      "inputs": [],
      "name": "getAllPools",
      "outputs": [
        {
          "internalType": "uint256[]",
          "name": "",
          "type": "uint256[]"
        }
      ],
      "stateMutability": "view",
      "type": "function"
    },
    {
      "inputs": [
        {
          "internalType": "uint256",
          "name": "_agentId",
          "type": "uint256"
        }
      ],
      "name": "getPoolInfo",
      "outputs": [
        {
          "internalType": "uint256",
          "name": "totalStaked",
          "type": "uint256"
        },
        {
          "internalType": "uint256",
          "name": "totalRewards",
          "type": "uint256"
        },
        {
          "internalType": "uint256",
          "name": "stakerCount",
          "type": "uint256"
        },
        {
          "internalType": "uint256",
          "name": "apy",
          "type": "uint256"
        }
      ],
      "stateMutability": "view",
      "type": "function"
    },
    {
      "inputs": [],
      "name": "marketplace",
      "outputs": [
        {
          "internalType": "address",
          "name": "",
          "type": "address"
        }
      ],
      "stateMutability": "view",
      "type": "function"
    },
    {
      "inputs": [],
      "name": "owner",
      "outputs": [
        {
          "internalType": "address",
          "name": "",
          "type": "address"
        }
      ],
      "stateMutability": "view",
      "type": "function"
    },
    {
      "inputs": [
        {
          "internalType": "uint256",
          "name": "",
          "type": "uint256"
        }
      ],
      "name": "pendingCreatorFees",
      "outputs": [
        {
          "internalType": "uint256",
          "name": "",
          "type": "uint256"
        }
      ],
      "stateMutability": "view",
      "type": "function"
    },
    {
      "inputs": [
        {
          "internalType": "uint256",
          "name": "",
          "type": "uint256"
        }
      ],
      "name": "pendingPlatformFees",
      "outputs": [
        {
          "internalType": "uint256",
          "name": "",
          "type": "uint256"
        }
      ],
      "stateMutability": "view",
      "type": "function"
    },
    {
      "inputs": [
        {
          "internalType": "uint256",
          "name": "_agentId",
          "type": "uint256"
        },
        {
          "internalType": "address",
          "name": "_staker",
          "type": "address"
        }
      ],
      "name": "pendingReward",
      "outputs": [
        {
          "internalType": "uint256",
          "name": "",
          "type": "uint256"
        }
      ],
      "stateMutability": "view",
      "type": "function"
    },
    {
      "inputs": [],
      "name": "platformFeeBps",
      "outputs": [
        {
          "internalType": "uint256",
          "name": "",
          "type": "uint256"
        }
      ],
      "stateMutability": "view",
      "type": "function"
    },
    {
      "inputs": [
        {
          "internalType": "uint256",
          "name": "",
          "type": "uint256"
        }
      ],
      "name": "poolAgentIds",
      "outputs": [
        {
          "internalType": "uint256",
          "name": "",
          "type": "uint256"
        }
      ],
      "stateMutability": "view",
      "type": "function"
    },
    {
      "inputs": [
        {
          "internalType": "uint256",
          "name": "",
          "type": "uint256"
        }
      ],
      "name": "pools",
      "outputs": [
        {
          "internalType": "uint256",
          "name": "totalStaked",
          "type": "uint256"
        },
        {
          "internalType": "uint256",
          "name": "rewardPerToken",
          "type": "uint256"
        },
        {
          "internalType": "uint256",
          "name": "lastUpdateTime",
          "type": "uint256"
        },
        {
          "internalType": "uint256",
          "name": "totalRewards",
          "type": "uint256"
        },
        {
          "internalType": "bool",
          "name": "exists",
          "type": "bool"
        }
      ],
      "stateMutability": "view",
      "type": "function"
    },
    {
      "inputs": [
        {
          "internalType": "uint256",
          "name": "_agentId",
          "type": "uint256"
        }
      ],
      "name": "stake",
      "outputs": [],
      "stateMutability": "payable",
      "type": "function"
    },
    {
      "inputs": [],
      "name": "stakerFeeBps",
      "outputs": [
        {
          "internalType": "uint256",
          "name": "",
          "type": "uint256"
        }
      ],
      "stateMutability": "view",
      "type": "function"
    },
    {
      "inputs": [
        {
          "internalType": "uint256",
          "name": "_agentId",
          "type": "uint256"
        },
        {
          "internalType": "address",
          "name": "_staker",
          "type": "address"
        }
      ],
      "name": "stakerShare",
      "outputs": [
        {
          "internalType": "uint256",
          "name": "",
          "type": "uint256"
        }
      ],
      "stateMutability": "view",
      "type": "function"
    },
    {
      "inputs": [
        {
          "internalType": "uint256",
          "name": "",
          "type": "uint256"
        },
        {
          "internalType": "address",
          "name": "",
          "type": "address"
        }
      ],
      "name": "stakers",
      "outputs": [
        {
          "internalType": "uint256",
          "name": "staked",
          "type": "uint256"
        },
        {
          "internalType": "uint256",
          "name": "rewardPerTokenPaid",
          "type": "uint256"
        },
        {
          "internalType": "uint256",
          "name": "rewards",
          "type": "uint256"
        }
      ],
      "stateMutability": "view",
      "type": "function"
    },
    {
      "inputs": [
        {
          "internalType": "address",
          "name": "_newOwner",
          "type": "address"
        }
      ],
      "name": "transferOwnership",
      "outputs": [],
      "stateMutability": "nonpayable",
      "type": "function"
    },
    {
      "inputs": [
        {
          "internalType": "uint256",
          "name": "_agentId",
          "type": "uint256"
        },
        {
          "internalType": "uint256",
          "name": "_amount",
          "type": "uint256"
        }
      ],
      "name": "unstake",
      "outputs": [],
      "stateMutability": "nonpayable",
      "type": "function"
    },
    {
      "inputs": [
        {
          "internalType": "uint256",
          "name": "_stakerFee",
          "type": "uint256"
        },
        {
          "internalType": "uint256",
          "name": "_creatorFee",
          "type": "uint256"
        },
        {
          "internalType": "uint256",
          "name": "_platformFee",
          "type": "uint256"
        }
      ],
      "name": "updateFees",
      "outputs": [],
      "stateMutability": "nonpayable",
      "type": "function"
    },
    {
      "inputs": [
        {
          "internalType": "uint256",
          "name": "_agentId",
          "type": "uint256"
        }
      ],
      "name": "withdrawCreatorFee",
      "outputs": [],
      "stateMutability": "nonpayable",
      "type": "function"
    },
    {
      "inputs": [
        {
          "internalType": "uint256",
          "name": "_agentId",
          "type": "uint256"
        }
      ],
      "name": "withdrawPlatformFee",
      "outputs": [],
      "stateMutability": "nonpayable",
      "type": "function"
    },
    {
      "stateMutability": "payable",
      "type": "receive"
    }
  ],
  "bytecode": "0x6080604052611b586005556107d06006556103e860075534801561002257600080fd5b50604051611ad2380380611ad283398101604081905261004191610074565b60008054336001600160a01b031991821617909155600180549091166001600160a01b03929092169190911790556100a4565b60006020828403121561008657600080fd5b81516001600160a01b038116811461009d57600080fd5b9392505050565b611a1f806100b36000396000f3fe60806040526004361061016a5760003560e01c806398969e82116100d1578063b24b837a1161008a578063d88ff1f411610064578063d88ff1f4146104d3578063dde7c190146104f5578063eeee849b14610515578063f2fde38b1461053557600080fd5b8063b24b837a14610459578063c5a584d414610486578063d6d1dfe0146104a657600080fd5b806398969e821461034f5780639e2c8a5b1461036f578063a694fc3a1461038f578063abc8c7af146103a2578063ac4afa38146103c2578063ae169a501461043957600080fd5b80632f380b35116101235780632f380b351461022257806359fde1e0146102625780635e225621146102755780638259e6a0146102d7578063841921b6146102f75780638da5cb5b1461031757600080fd5b806305bf3b52146101765780630b83a7271461019f57806317773ebb146101b65780631d58b2d5146101cc57806322429085146101ec57806322dcd13e1461020c57600080fd5b3661017157005b600080fd5b34801561018257600080fd5b5061018c60055481565b6040519081526020015b60405180910390f35b3480156101ab57600080fd5b506101b4610555565b005b3480156101c257600080fd5b5061018c60065481565b3480156101d857600080fd5b5061018c6101e736600461163b565b6106b7565b3480156101f857600080fd5b506101b461020736600461166b565b61071f565b34801561021857600080fd5b5061018c60075481565b34801561022e57600080fd5b5061024261023d366004611697565b6107f6565b604080519485526020850193909352918301526060820152608001610196565b6101b4610270366004611697565b610882565b34801561028157600080fd5b506102bc61029036600461163b565b600360209081526000928352604080842090915290825290208054600182015460029092015490919083565b60408051938452602084019290925290820152606001610196565b3480156102e357600080fd5b506101b46102f2366004611697565b610a88565b34801561030357600080fd5b506101b4610312366004611697565b610c94565b34801561032357600080fd5b50600054610337906001600160a01b031681565b6040516001600160a01b039091168152602001610196565b34801561035b57600080fd5b5061018c61036a36600461163b565b610e20565b34801561037b57600080fd5b506101b461038a3660046116b0565b610e63565b6101b461039d366004611697565b611074565b3480156103ae57600080fd5b50600154610337906001600160a01b031681565b3480156103ce57600080fd5b5061040f6103dd366004611697565b600260208190526000918252604090912080546001820154928201546003830154600490930154919392909160ff1685565b6040805195865260208601949094529284019190915260608301521515608082015260a001610196565b34801561044557600080fd5b506101b4610454366004611697565b6111ba565b34801561046557600080fd5b5061018c610474366004611697565b60086020526000908152604090205481565b34801561049257600080fd5b5061018c6104a1366004611697565b61132f565b3480156104b257600080fd5b5061018c6104c1366004611697565b60096020526000908152604090205481565b3480156104df57600080fd5b506104e8611350565b60405161019691906116d2565b34801561050157600080fd5b506101b4610510366004611697565b6113a8565b34801561052157600080fd5b5061018c610530366004611697565b61149f565b34801561054157600080fd5b506101b4610550366004611716565b611532565b60005b6004548110156106b4576000600482815481106105775761057761173a565b600091825260208083209091015480835260038252604080842033855290925291208054919250901561069f5760008281526002602081905260408220429101556105c283336115c3565b82600201546105d19190611766565b9050801561069d576000600283810182905584825260205260408082206001908101549085015551339083908381818185875af1925050503d8060008114610635576040519150601f19603f3d011682016040523d82523d6000602084013e61063a565b606091505b50509050806106645760405162461bcd60e51b815260040161065b90611779565b60405180910390fd5b604051828152339085907f24b5efa61dd1cfc659205a97fb8ed868f3cb8c81922bab2b96423e5de1de2cb79060200160405180910390a3505b505b505080806106ac906117a2565b915050610558565b50565b60008281526002602052604081205481036106d457506000610719565b600083815260026020908152604080832054600383528184206001600160a01b03871685529092529091205461070c906127106117bb565b61071691906117d2565b90505b92915050565b6000546001600160a01b031633146107495760405162461bcd60e51b815260040161065b906117f4565b806107548385611766565b61075e9190611766565b612710146107a15760405162461bcd60e51b815260206004820152601060248201526f4d7573742073756d20746f203130302560801b604482015260640161065b565b60058390556006829055600781905560408051848152602081018490529081018290527fcf8a1e1d5f09cf3c97dbb653cd9a4d7aace9292fbc1bb8211febf2d400febbdd9060600160405180910390a1505050565b6000818152600260205260408120805460038201548392839283928360405163eeee849b60e01b8152600481018a9052309063eeee849b90602401602060405180830381865afa15801561084e573d6000803e3d6000fd5b505050506040513d601f19601f820116820180604052508101906108729190611817565b9450945094509450509193509193565b600081815260026020526040902060040154819060ff166108b55760405162461bcd60e51b815260040161065b90611830565b600034116108f55760405162461bcd60e51b815260206004820152600d60248201526c04d7573742073656e64203e203609c1b604482015260640161065b565b60008281526002602081905260408220429101556005546127109061091a90346117bb565b61092491906117d2565b905060006127106006543461093991906117bb565b61094391906117d2565b905060006127106007543461095891906117bb565b61096291906117d2565b600086815260026020526040902054909150156109cb5760008581526002602052604090205461099a84670de0b6b3a76400006117bb565b6109a491906117d2565b600086815260026020526040812060010180549091906109c5908490611766565b90915550505b600085815260026020526040812060030180548592906109ec908490611766565b909155505060008581526008602052604081208054849290610a0f908490611766565b909155505060008581526009602052604081208054839290610a32908490611766565b909155505060408051348152602081018590529081018390526060810182905285907fe17236f5dcccef76cccad15f0166f36d9333aa7d06e532f9ea301a301de068fc9060800160405180910390a25050505050565b6000546001600160a01b03163314610ab25760405162461bcd60e51b815260040161065b906117f4565b60008181526002602052604090206004015460ff1615610b0a5760405162461bcd60e51b8152602060048201526013602482015272506f6f6c20616c72656164792065786973747360681b604482015260640161065b565b600154604051630a270ad960e31b81526004810183905260009182916001600160a01b039091169063513856c890602401600060405180830381865afa158015610b58573d6000803e3d6000fd5b505050506040513d6000823e601f3d908101601f19168201604052610b809190810190611914565b98505050505050509250506000825111610bce5760405162461bcd60e51b815260206004820152600f60248201526e1059d95b9d081b9bdd08199bdd5b99608a1b604482015260640161065b565b6040805160a0810182526000808252602080830182815242848601908152606085018481526001608087018181528b87526002958690528887209751885593518782015591519386019390935591516003850155516004938401805460ff1916911515919091179055825490810183559181527f8a35acfbc15ff81a39ae7d344fd709f28e8600b4aa8c65c6b64bfe7fe36bd19b909101859055905184917ffa88d81eaffbf548e3ffc6c6458827ce9906ad714060746b80909cdf8d1d7ef791a2505050565b600154604051630a270ad960e31b8152600481018390526000916001600160a01b03169063513856c890602401600060405180830381865afa158015610cde573d6000803e3d6000fd5b505050506040513d6000823e601f3d908101601f19168201604052610d069190810190611914565b50505050505050509050806001600160a01b0316336001600160a01b031614610d5f5760405162461bcd60e51b815260206004820152600b60248201526a2737ba1031b932b0ba37b960a91b604482015260640161065b565b60008281526008602052604090205480610da55760405162461bcd60e51b81526020600482015260076024820152664e6f206665657360c81b604482015260640161065b565b60008381526008602052604080822082905551339083908381818185875af1925050503d8060008114610df4576040519150601f19603f3d011682016040523d82523d6000602084013e610df9565b606091505b5050905080610e1a5760405162461bcd60e51b815260040161065b90611779565b50505050565b60008281526003602090815260408083206001600160a01b03851684529091528120610e4c84846115c3565b8160020154610e5b9190611766565b949350505050565b600082815260026020526040902060040154829060ff16610e965760405162461bcd60e51b815260040161065b90611830565b600083815260036020908152604080832033845290915290208054610eee5760405162461bcd60e51b815260206004820152600e60248201526d139bdd1a1a5b99c81cdd185ad95960921b604482015260640161065b565b600084815260026020819052604090912042910155610f0d84336115c3565b816002016000828254610f209190611766565b90915550506000848152600260205260408120600190810154908301558315610f495783610f4c565b81545b8254909150811115610f915760405162461bcd60e51b815260206004820152600e60248201526d115e18d959591cc81cdd185ad95960921b604482015260640161065b565b80826000016000828254610fa591906119d6565b909155505060008581526002602052604081208054839290610fc89084906119d6565b9091555050604051600090339083908381818185875af1925050503d806000811461100f576040519150601f19603f3d011682016040523d82523d6000602084013e611014565b606091505b50509050806110355760405162461bcd60e51b815260040161065b90611779565b604051828152339087907f37375b03d8924bd8f076f11f8411b9962aa5c02fb489021507bc6bb6f850e3659060200160405180910390a3505050505050565b600081815260026020526040902060040154819060ff166110a75760405162461bcd60e51b815260040161065b90611830565b600034116110e85760405162461bcd60e51b815260206004820152600e60248201526d04d757374207374616b65203e20360941b604482015260640161065b565b60008281526002602081815260408084204293019290925560038152818320338452905290208054156111385761111f83336115c3565b8160020160008282546111329190611766565b90915550505b3481600001600082825461114c9190611766565b90915550506000838152600260205260408120600180820154908401558054349290611179908490611766565b9091555050604051348152339084907f18dcd430020e4d4899772fd94a8b40451dc5044dfb70bc46b532eeae431c864f9060200160405180910390a3505050565b600081815260026020526040902060040154819060ff166111ed5760405162461bcd60e51b815260040161065b90611830565b60008281526003602090815260408083203384528252808320858452600292839052922042910155600061122184336115c3565b82600201546112309190611766565b90506000811161126f5760405162461bcd60e51b815260206004820152600a6024820152694e6f207265776172647360b01b604482015260640161065b565b6000600283810182905585825260205260408082206001908101549085015551339083908381818185875af1925050503d80600081146112cb576040519150601f19603f3d011682016040523d82523d6000602084013e6112d0565b606091505b50509050806112f15760405162461bcd60e51b815260040161065b90611779565b604051828152339086907f24b5efa61dd1cfc659205a97fb8ed868f3cb8c81922bab2b96423e5de1de2cb79060200160405180910390a35050505050565b6004818154811061133f57600080fd5b600091825260209091200154905081565b6060600480548060200260200160405190810160405280929190818152602001828054801561139e57602002820191906000526020600020905b81548152602001906001019080831161138a575b5050505050905090565b6000546001600160a01b031633146113d25760405162461bcd60e51b815260040161065b906117f4565b600081815260096020526040902054806114185760405162461bcd60e51b81526020600482015260076024820152664e6f206665657360c81b604482015260640161065b565b600082815260096020526040808220829055815490516001600160a01b039091169083908381818185875af1925050503d8060008114611474576040519150601f19603f3d011682016040523d82523d6000602084013e611479565b606091505b505090508061149a5760405162461bcd60e51b815260040161065b90611779565b505050565b6000818152600260205260408120805415806114bd57506002810154155b156114cb5750600092915050565b60008160020154426114dd91906119d6565b9050806000036114f1575060009392505050565b81546000906115019083906117bb565b6003840154611514906301e133806117bb565b61151f9060646117bb565b61152991906117d2565b95945050505050565b6000546001600160a01b0316331461155c5760405162461bcd60e51b815260040161065b906117f4565b6001600160a01b0381166115a15760405162461bcd60e51b815260206004820152600c60248201526b5a65726f206164647265737360a01b604482015260640161065b565b600080546001600160a01b0319166001600160a01b0392909216919091179055565b60008281526003602090815260408083206001600160a01b038516845282528083206001808201548786526002909452918420909101549091670de0b6b3a76400009161161091906119d6565b825461161c91906117bb565b610e5b91906117d2565b6001600160a01b03811681146106b457600080fd5b6000806040838503121561164e57600080fd5b82359150602083013561166081611626565b809150509250929050565b60008060006060848603121561168057600080fd5b505081359360208301359350604090920135919050565b6000602082840312156116a957600080fd5b5035919050565b600080604083850312156116c357600080fd5b50508035926020909101359150565b6020808252825182820181905260009190848201906040850190845b8181101561170a578351835292840192918401916001016116ee565b50909695505050505050565b60006020828403121561172857600080fd5b813561173381611626565b9392505050565b634e487b7160e01b600052603260045260246000fd5b634e487b7160e01b600052601160045260246000fd5b8082018082111561071957610719611750565b6020808252600f908201526e151c985b9cd9995c8819985a5b1959608a1b604082015260600190565b6000600182016117b4576117b4611750565b5060010190565b808202811582820484141761071957610719611750565b6000826117ef57634e487b7160e01b600052601260045260246000fd5b500490565b6020808252600990820152682737ba1037bbb732b960b91b604082015260600190565b60006020828403121561182957600080fd5b5051919050565b6020808252600e908201526d141bdbdb081b9bdd08199bdd5b9960921b604082015260600190565b634e487b7160e01b600052604160045260246000fd5b600082601f83011261187f57600080fd5b815167ffffffffffffffff8082111561189a5761189a611858565b604051601f8301601f19908116603f011681019082821181831017156118c2576118c2611858565b816040528381526020925086838588010111156118de57600080fd5b600091505b8382101561190057858201830151818301840152908201906118e3565b600093810190920192909252949350505050565b60008060008060008060008060006101208a8c03121561193357600080fd5b895161193e81611626565b60208b015190995067ffffffffffffffff8082111561195c57600080fd5b6119688d838e0161186e565b995060408c015191508082111561197e57600080fd5b5061198b8c828d0161186e565b97505060608a0151955060808a0151945060a08a0151935060c08a0151925060e08a015191506101008a015180151581146119c557600080fd5b809150509295985092959850929598565b818103818111156107195761071961175056fea2646970667358221220ca2a0051bb27b07e25cb2ccbd4b1b25d142e815b53ce0dd0f7a19e21019e58b564736f6c63430008140033",
  "linkReferences": {},
  "deployedLinkReferences": {}
}